{
  "_format": "hh-sol-artifact-1",
  "contractName": "Factory",
  "sourceName": "contracts/Factory.sol",
  "address": "0xcFd84C8E0456BAB49460cdb6A5F3541D3F893e2d",
  "abi": [
    {
      "inputs": [
        {
          "internalType": "address",
          "name": "_verifier",
          "type": "address"
        }
      ],
      "stateMutability": "nonpayable",
      "type": "constructor"
    },
    {
      "inputs": [
        {
          "internalType": "string",
          "name": "_domainPub",
          "type": "string"
        },
        {
          "internalType": "string",
          "name": "_regionPub",
          "type": "string"
        },
        {
          "internalType": "string",
          "name": "_genderPub",
          "type": "string"
        }
      ],
      "name": "createCommunity",
      "outputs": [],
      "stateMutability": "nonpayable",
      "type": "function"
    },
    {
      "inputs": [],
      "name": "getAllCommunities",
      "outputs": [
        {
          "internalType": "address[]",
          "name": "",
          "type": "address[]"
        }
      ],
      "stateMutability": "view",
      "type": "function"
    },
    {
      "inputs": [
        {
          "internalType": "uint256",
          "name": "_id",
          "type": "uint256"
        }
      ],
      "name": "getCommunity",
      "outputs": [
        {
          "internalType": "address",
          "name": "",
          "type": "address"
        }
      ],
      "stateMutability": "view",
      "type": "function"
    },
    {
      "inputs": [
        {
          "internalType": "uint256",
          "name": "",
          "type": "uint256"
        }
      ],
      "name": "idToCommunity",
      "outputs": [
        {
          "internalType": "address",
          "name": "",
          "type": "address"
        }
      ],
      "stateMutability": "view",
      "type": "function"
    }
  ],
  "bytecode": "0x60806040526000805534801561001457600080fd5b5060405161123e38038061123e83398101604081905261003391610058565b600180546001600160a01b0319166001600160a01b0392909216919091179055610088565b60006020828403121561006a57600080fd5b81516001600160a01b038116811461008157600080fd5b9392505050565b6111a7806100976000396000f3fe608060405234801561001057600080fd5b506004361061004c5760003560e01c8063370603f81461005157806375586d4a146100b157806395dd0ed0146100c6578063f8e7c39f146100db575b600080fd5b61008761005f366004610291565b60009081526003602052604090205473ffffffffffffffffffffffffffffffffffffffff1690565b60405173ffffffffffffffffffffffffffffffffffffffff90911681526020015b60405180910390f35b6100c46100bf366004610384565b610111565b005b6100ce610215565b6040516100a8919061040c565b6100876100e9366004610291565b60036020526000908152604090205473ffffffffffffffffffffffffffffffffffffffff1681565b6000805460015460405191929186918691869173ffffffffffffffffffffffffffffffffffffffff1690869061014690610284565b6101549594939291906104ca565b604051809103906000f080158015610170573d6000803e3d6000fd5b506000838152600360205260408120805473ffffffffffffffffffffffffffffffffffffffff84167fffffffffffffffffffffffff00000000000000000000000000000000000000009182168117909255600280546001810182559084527f405787fa12a823e0f2b7631cc41b3ba8828b3321ca811111fa75cd3aa3bb5ace01805490911690911790558054919250806102098361052e565b91905055505050505050565b6060600280548060200260200160405190810160405280929190818152602001828054801561027a57602002820191906000526020600020905b815473ffffffffffffffffffffffffffffffffffffffff16815260019091019060200180831161024f575b5050505050905090565b610be48061058e83390190565b6000602082840312156102a357600080fd5b5035919050565b7f4e487b7100000000000000000000000000000000000000000000000000000000600052604160045260246000fd5b600082601f8301126102ea57600080fd5b813567ffffffffffffffff80821115610305576103056102aa565b604051601f83017fffffffffffffffffffffffffffffffffffffffffffffffffffffffffffffffe0908116603f0116810190828211818310171561034b5761034b6102aa565b8160405283815286602085880101111561036457600080fd5b836020870160208301376000602085830101528094505050505092915050565b60008060006060848603121561039957600080fd5b833567ffffffffffffffff808211156103b157600080fd5b6103bd878388016102d9565b945060208601359150808211156103d357600080fd5b6103df878388016102d9565b935060408601359150808211156103f557600080fd5b50610402868287016102d9565b9150509250925092565b6020808252825182820181905260009190848201906040850190845b8181101561045a57835173ffffffffffffffffffffffffffffffffffffffff1683529284019291840191600101610428565b50909695505050505050565b6000815180845260005b8181101561048c57602081850181015186830182015201610470565b5060006020828601015260207fffffffffffffffffffffffffffffffffffffffffffffffffffffffffffffffe0601f83011685010191505092915050565b60a0815260006104dd60a0830188610466565b82810360208401526104ef8188610466565b905082810360408401526105038187610466565b73ffffffffffffffffffffffffffffffffffffffff9590951660608401525050608001529392505050565b60007fffffffffffffffffffffffffffffffffffffffffffffffffffffffffffffffff8203610586577f4e487b7100000000000000000000000000000000000000000000000000000000600052601160045260246000fd5b506001019056fe60806040523480156200001157600080fd5b5060405162000be438038062000be483398101604081905262000034916200014f565b600080546001600160a01b0319166001600160a01b03841617905560026200005d86826200029d565b5060036200006c85826200029d565b5060046200007b84826200029d565b50600155506200036992505050565b634e487b7160e01b600052604160045260246000fd5b600082601f830112620000b257600080fd5b81516001600160401b0380821115620000cf57620000cf6200008a565b604051601f8301601f19908116603f01168101908282118183101715620000fa57620000fa6200008a565b816040528381526020925086838588010111156200011757600080fd5b600091505b838210156200013b57858201830151818301840152908201906200011c565b600093810190920192909252949350505050565b600080600080600060a086880312156200016857600080fd5b85516001600160401b03808211156200018057600080fd5b6200018e89838a01620000a0565b96506020880151915080821115620001a557600080fd5b620001b389838a01620000a0565b95506040880151915080821115620001ca57600080fd5b50620001d988828901620000a0565b606088015190945090506001600160a01b0381168114620001f957600080fd5b80925050608086015190509295509295909350565b600181811c908216806200022357607f821691505b6020821081036200024457634e487b7160e01b600052602260045260246000fd5b50919050565b601f8211156200029857600081815260208120601f850160051c81016020861015620002735750805b601f850160051c820191505b8181101562000294578281556001016200027f565b5050505b505050565b81516001600160401b03811115620002b957620002b96200008a565b620002d181620002ca84546200020e565b846200024a565b602080601f831160018114620003095760008415620002f05750858301515b600019600386901b1c1916600185901b17855562000294565b600085815260208120601f198616915b828110156200033a5788860151825594840194600190910190840162000319565b5085821015620003595787850151600019600388901b60f8161c191681555b5050505050600190811b01905550565b61086b80620003796000396000f3fe608060405234801561001057600080fd5b50600436106100675760003560e01c80635e164843116100505780635e164843146100ab578063ce59654a146100e7578063d02982cf146100ef57600080fd5b8063152c84db1461006c57806345e2984a14610094575b600080fd5b61007f61007a3660046105b2565b610107565b60405190151581526020015b60405180910390f35b61009c61021a565b60405161008b939291906106db565b6100e533600090815260056020526040902080547fffffffffffffffffffffffffffffffffffffffffffffffffffffffffffffff00169055565b005b61009c610404565b3360009081526005602052604090205460ff1661007f565b600080546040517fea50d0e400000000000000000000000000000000000000000000000000000000815273ffffffffffffffffffffffffffffffffffffffff9091169063ea50d0e49061016490889088908890889060040161071e565b602060405180830381865afa158015610181573d6000803e3d6000fd5b505050506040513d601f19601f820116820180604052508101906101a591906107b9565b61020f576040517f08c379a000000000000000000000000000000000000000000000000000000000815260206004820152600d60248201527f496e76616c69642070726f6f6600000000000000000000000000000000000000604482015260640160405180910390fd5b506001949350505050565b6060806060600060026000018054610231906107e2565b80601f016020809104026020016040519081016040528092919081815260200182805461025d906107e2565b80156102aa5780601f1061027f576101008083540402835291602001916102aa565b820191906000526020600020905b81548152906001019060200180831161028d57829003601f168201915b5050505050905060006102ba8290565b90506000600260010180546102ce906107e2565b80601f01602080910402602001604051908101604052809291908181526020018280546102fa906107e2565b80156103475780601f1061031c57610100808354040283529160200191610347565b820191906000526020600020905b81548152906001019060200180831161032a57829003601f168201915b5050505050905060006103578290565b9050600060028001805461036a906107e2565b80601f0160208091040260200160405190810160405280929190818152602001828054610396906107e2565b80156103e35780601f106103b8576101008083540402835291602001916103e3565b820191906000526020600020905b8154815290600101906020018083116103c657829003601f168201915b5050505050905060006103f38290565b949992985093965090945050505050565b600280548190610413906107e2565b80601f016020809104026020016040519081016040528092919081815260200182805461043f906107e2565b801561048c5780601f106104615761010080835404028352916020019161048c565b820191906000526020600020905b81548152906001019060200180831161046f57829003601f168201915b5050505050908060010180546104a1906107e2565b80601f01602080910402602001604051908101604052809291908181526020018280546104cd906107e2565b801561051a5780601f106104ef5761010080835404028352916020019161051a565b820191906000526020600020905b8154815290600101906020018083116104fd57829003601f168201915b50505050509080600201805461052f906107e2565b80601f016020809104026020016040519081016040528092919081815260200182805461055b906107e2565b80156105a85780601f1061057d576101008083540402835291602001916105a8565b820191906000526020600020905b81548152906001019060200180831161058b57829003601f168201915b5050505050905083565b600080600080604085870312156105c857600080fd5b843567ffffffffffffffff808211156105e057600080fd5b818701915087601f8301126105f457600080fd5b81358181111561060357600080fd5b88602082850101111561061557600080fd5b60209283019650945090860135908082111561063057600080fd5b818701915087601f83011261064457600080fd5b81358181111561065357600080fd5b8860208260051b850101111561066857600080fd5b95989497505060200194505050565b6000815180845260005b8181101561069d57602081850181015186830182015201610681565b5060006020828601015260207fffffffffffffffffffffffffffffffffffffffffffffffffffffffffffffffe0601f83011685010191505092915050565b6060815260006106ee6060830186610677565b82810360208401526107008186610677565b905082810360408401526107148185610677565b9695505050505050565b604081528360408201528385606083013760006060858301015260007fffffffffffffffffffffffffffffffffffffffffffffffffffffffffffffffe0601f860116820160608382030160208401528360608201527f07ffffffffffffffffffffffffffffffffffffffffffffffffffffffffffffff8411156107a057600080fd5b8360051b80866080840137016080019695505050505050565b6000602082840312156107cb57600080fd5b815180151581146107db57600080fd5b9392505050565b600181811c908216806107f657607f821691505b60208210810361082f577f4e487b7100000000000000000000000000000000000000000000000000000000600052602260045260246000fd5b5091905056fea2646970667358221220c7cd6b9169364b9d8e2ea44a81730182ab33445d97fda555a711819a64a910a364736f6c63430008120033a26469706673582212208cf519dc1a6e5e448ef64b322fe5bb4e8029d089bed46e9093099e6d0fe15bdf64736f6c63430008120033",
  "linkReferences": {},
  "deployedLinkReferences": {}
}