{
  "_format": "hh-sol-artifact-1",
  "contractName": "Factory",
  "sourceName": "contracts/Factory.sol",
  "address": "0x7f10abDBafB04D1D485C2652554174E229Cd4355",
  "abi": [
    {
      "inputs": [
        {
          "internalType": "address",
          "name": "_verifier",
          "type": "address"
        }
      ],
      "stateMutability": "nonpayable",
      "type": "constructor"
    },
    {
      "inputs": [
        {
          "internalType": "address",
          "name": "",
          "type": "address"
        }
      ],
      "name": "addressToCommunityDetails",
      "outputs": [
        {
          "internalType": "string",
          "name": "communityName",
          "type": "string"
        },
        {
          "internalType": "string",
          "name": "communityDescription",
          "type": "string"
        },
        {
          "internalType": "string",
          "name": "domainPub",
          "type": "string"
        },
        {
          "internalType": "string",
          "name": "regionPub",
          "type": "string"
        },
        {
          "internalType": "string",
          "name": "genderPub",
          "type": "string"
        }
      ],
      "stateMutability": "view",
      "type": "function"
    },
    {
      "inputs": [
        {
          "internalType": "address",
          "name": "",
          "type": "address"
        }
      ],
      "name": "addressToPollDetails",
      "outputs": [
        {
          "internalType": "string",
          "name": "mongoPollId",
          "type": "string"
        },
        {
          "internalType": "string",
          "name": "domainPub",
          "type": "string"
        },
        {
          "internalType": "string",
          "name": "regionPub",
          "type": "string"
        },
        {
          "internalType": "string",
          "name": "genderPub",
          "type": "string"
        }
      ],
      "stateMutability": "view",
      "type": "function"
    },
    {
      "inputs": [
        {
          "internalType": "uint256",
          "name": "",
          "type": "uint256"
        }
      ],
      "name": "communityDetails",
      "outputs": [
        {
          "internalType": "string",
          "name": "communityName",
          "type": "string"
        },
        {
          "internalType": "string",
          "name": "communityDescription",
          "type": "string"
        },
        {
          "internalType": "string",
          "name": "domainPub",
          "type": "string"
        },
        {
          "internalType": "string",
          "name": "regionPub",
          "type": "string"
        },
        {
          "internalType": "string",
          "name": "genderPub",
          "type": "string"
        }
      ],
      "stateMutability": "view",
      "type": "function"
    },
    {
      "inputs": [
        {
          "internalType": "string",
          "name": "_domainPub",
          "type": "string"
        },
        {
          "internalType": "string",
          "name": "_regionPub",
          "type": "string"
        },
        {
          "internalType": "string",
          "name": "_genderPub",
          "type": "string"
        },
        {
          "internalType": "string",
          "name": "_communityName",
          "type": "string"
        },
        {
          "internalType": "string",
          "name": "_communityDescription",
          "type": "string"
        }
      ],
      "name": "createCommunity",
      "outputs": [],
      "stateMutability": "nonpayable",
      "type": "function"
    },
    {
      "inputs": [
        {
          "internalType": "string",
          "name": "_domainPub",
          "type": "string"
        },
        {
          "internalType": "string",
          "name": "_regionPub",
          "type": "string"
        },
        {
          "internalType": "string",
          "name": "_genderPub",
          "type": "string"
        },
        {
          "internalType": "string",
          "name": "_mongoId",
          "type": "string"
        }
      ],
      "name": "createPoll",
      "outputs": [],
      "stateMutability": "nonpayable",
      "type": "function"
    },
    {
      "inputs": [],
      "name": "getAllCommunities",
      "outputs": [
        {
          "internalType": "address[]",
          "name": "",
          "type": "address[]"
        }
      ],
      "stateMutability": "view",
      "type": "function"
    },
    {
      "inputs": [],
      "name": "getAllPolls",
      "outputs": [
        {
          "internalType": "address[]",
          "name": "",
          "type": "address[]"
        }
      ],
      "stateMutability": "view",
      "type": "function"
    },
    {
      "inputs": [
        {
          "internalType": "uint256",
          "name": "_id",
          "type": "uint256"
        }
      ],
      "name": "getCommunity",
      "outputs": [
        {
          "internalType": "address",
          "name": "",
          "type": "address"
        }
      ],
      "stateMutability": "view",
      "type": "function"
    },
    {
      "inputs": [
        {
          "internalType": "address",
          "name": "_communityAddress",
          "type": "address"
        }
      ],
      "name": "getCommunityDetails",
      "outputs": [
        {
          "components": [
            {
              "internalType": "string",
              "name": "communityName",
              "type": "string"
            },
            {
              "internalType": "string",
              "name": "communityDescription",
              "type": "string"
            },
            {
              "internalType": "string",
              "name": "domainPub",
              "type": "string"
            },
            {
              "internalType": "string",
              "name": "regionPub",
              "type": "string"
            },
            {
              "internalType": "string",
              "name": "genderPub",
              "type": "string"
            }
          ],
          "internalType": "struct Factory.CommunityDetails",
          "name": "",
          "type": "tuple"
        }
      ],
      "stateMutability": "view",
      "type": "function"
    },
    {
      "inputs": [
        {
          "internalType": "uint256",
          "name": "_id",
          "type": "uint256"
        }
      ],
      "name": "getPoll",
      "outputs": [
        {
          "internalType": "address",
          "name": "",
          "type": "address"
        }
      ],
      "stateMutability": "view",
      "type": "function"
    },
    {
      "inputs": [
        {
          "internalType": "address",
          "name": "_pollAddress",
          "type": "address"
        }
      ],
      "name": "getPollDetails",
      "outputs": [
        {
          "components": [
            {
              "internalType": "string",
              "name": "mongoPollId",
              "type": "string"
            },
            {
              "internalType": "string",
              "name": "domainPub",
              "type": "string"
            },
            {
              "internalType": "string",
              "name": "regionPub",
              "type": "string"
            },
            {
              "internalType": "string",
              "name": "genderPub",
              "type": "string"
            }
          ],
          "internalType": "struct Factory.PollDetails",
          "name": "",
          "type": "tuple"
        }
      ],
      "stateMutability": "view",
      "type": "function"
    },
    {
      "inputs": [
        {
          "internalType": "uint256",
          "name": "",
          "type": "uint256"
        }
      ],
      "name": "idToCommunity",
      "outputs": [
        {
          "internalType": "address",
          "name": "",
          "type": "address"
        }
      ],
      "stateMutability": "view",
      "type": "function"
    },
    {
      "inputs": [
        {
          "internalType": "uint256",
          "name": "",
          "type": "uint256"
        }
      ],
      "name": "idToPoll",
      "outputs": [
        {
          "internalType": "address",
          "name": "",
          "type": "address"
        }
      ],
      "stateMutability": "view",
      "type": "function"
    },
    {
      "inputs": [
        {
          "internalType": "uint256",
          "name": "",
          "type": "uint256"
        }
      ],
      "name": "pollDetails",
      "outputs": [
        {
          "internalType": "string",
          "name": "mongoPollId",
          "type": "string"
        },
        {
          "internalType": "string",
          "name": "domainPub",
          "type": "string"
        },
        {
          "internalType": "string",
          "name": "regionPub",
          "type": "string"
        },
        {
          "internalType": "string",
          "name": "genderPub",
          "type": "string"
        }
      ],
      "stateMutability": "view",
      "type": "function"
    }
  ],
  "bytecode": "0x608060405234801561001057600080fd5b50604051613a04380380613a0483398101604081905261002f9161005c565b600280546001600160a01b0319166001600160a01b0392909216919091179055600080805560015561008c565b60006020828403121561006e57600080fd5b81516001600160a01b038116811461008557600080fd5b9392505050565b6139698061009b6000396000f3fe60806040523480156200001157600080fd5b5060043610620000fd5760003560e01c80636d5b622f1162000097578063c16cd64c116200006e578063c16cd64c1462000282578063c617f41a14620002ac578063e5b5611414620002c3578063f8e7c39f14620002fc57600080fd5b80636d5b622f146200023b57806395dd0ed01462000252578063b5737c10146200025c57600080fd5b80632ed002fc11620000d85780632ed002fc14620001ac57806332b633fa14620001d2578063370603f814620001eb5780633bf09728146200022457600080fd5b8063052ba5d2146200010257806313f84f5d14620001345780631a8cbcaa146200014d575b600080fd5b620001196200011336600462001332565b62000335565b6040516200012b9493929190620013b9565b60405180910390f35b6200014b62000145366004620014dd565b6200059d565b005b620001866200015e366004620015bf565b60009081526008602052604090205473ffffffffffffffffffffffffffffffffffffffff1690565b60405173ffffffffffffffffffffffffffffffffffffffff90911681526020016200012b565b620001c3620001bd36600462001332565b62000774565b6040516200012b9190620015d9565b620001dc62000a3e565b6040516200012b91906200165f565b62000186620001fc366004620015bf565b60009081526007602052604090205473ffffffffffffffffffffffffffffffffffffffff1690565b6200011962000235366004620015bf565b62000aaf565b6200014b6200024c366004620016bb565b62000ae5565b620001dc62000c97565b620002736200026d36600462001332565b62000d06565b6040516200012b919062001775565b620002996200029336600462001332565b62000fe2565b6040516200012b95949392919062001811565b62000299620002bd366004620015bf565b620012e0565b62000186620002d4366004620015bf565b60086020526000908152604090205473ffffffffffffffffffffffffffffffffffffffff1681565b620001866200030d366004620015bf565b60076020526000908152604090205473ffffffffffffffffffffffffffffffffffffffff1681565b600a60205260009081526040902080548190620003529062001888565b80601f0160208091040260200160405190810160405280929190818152602001828054620003809062001888565b8015620003d15780601f10620003a557610100808354040283529160200191620003d1565b820191906000526020600020905b815481529060010190602001808311620003b357829003601f168201915b505050505090806001018054620003e89062001888565b80601f0160208091040260200160405190810160405280929190818152602001828054620004169062001888565b8015620004675780601f106200043b5761010080835404028352916020019162000467565b820191906000526020600020905b8154815290600101906020018083116200044957829003601f168201915b5050505050908060020180546200047e9062001888565b80601f0160208091040260200160405190810160405280929190818152602001828054620004ac9062001888565b8015620004fd5780601f10620004d157610100808354040283529160200191620004fd565b820191906000526020600020905b815481529060010190602001808311620004df57829003601f168201915b505050505090806003018054620005149062001888565b80601f0160208091040260200160405190810160405280929190818152602001828054620005429062001888565b8015620005935780601f10620005675761010080835404028352916020019162000593565b820191906000526020600020905b8154815290600101906020018083116200057557829003601f168201915b5050505050905084565b6000805490506000868686600260009054906101000a900473ffffffffffffffffffffffffffffffffffffffff16858888604051620005dc9062001316565b620005ee9796959493929190620018dd565b604051809103906000f0801580156200060b573d6000803e3d6000fd5b506040805160a08101825286815260208082018790528183018b9052606082018a90526080820189905273ffffffffffffffffffffffffffffffffffffffff841660009081526009909152919091208151929350909181906200066f9082620019cb565b5060208201516001820190620006869082620019cb565b50604082015160028201906200069d9082620019cb565b5060608201516003820190620006b49082620019cb565b5060808201516004820190620006cb9082620019cb565b5050506000828152600760205260408120805473ffffffffffffffffffffffffffffffffffffffff84167fffffffffffffffffffffffff00000000000000000000000000000000000000009182168117909255600380546001810182559084527fc2575a0e9e593c00f959f8c92f12db2869c3395a3b0502d05e2516446f71f85b018054909116909117905580549080620007668362001a98565b919050555050505050505050565b620007a06040518060800160405280606081526020016060815260200160608152602001606081525090565b73ffffffffffffffffffffffffffffffffffffffff82166000908152600a602052604090819020815160808101909252805482908290620007e19062001888565b80601f01602080910402602001604051908101604052809291908181526020018280546200080f9062001888565b8015620008605780601f10620008345761010080835404028352916020019162000860565b820191906000526020600020905b8154815290600101906020018083116200084257829003601f168201915b505050505081526020016001820180546200087b9062001888565b80601f0160208091040260200160405190810160405280929190818152602001828054620008a99062001888565b8015620008fa5780601f10620008ce57610100808354040283529160200191620008fa565b820191906000526020600020905b815481529060010190602001808311620008dc57829003601f168201915b50505050508152602001600282018054620009159062001888565b80601f0160208091040260200160405190810160405280929190818152602001828054620009439062001888565b8015620009945780601f10620009685761010080835404028352916020019162000994565b820191906000526020600020905b8154815290600101906020018083116200097657829003601f168201915b50505050508152602001600382018054620009af9062001888565b80601f0160208091040260200160405190810160405280929190818152602001828054620009dd9062001888565b801562000a2e5780601f1062000a025761010080835404028352916020019162000a2e565b820191906000526020600020905b81548152906001019060200180831162000a1057829003601f168201915b5050505050815250509050919050565b6060600480548060200260200160405190810160405280929190818152602001828054801562000aa557602002820191906000526020600020905b815473ffffffffffffffffffffffffffffffffffffffff16815260019091019060200180831162000a79575b5050505050905090565b6006818154811062000ac057600080fd5b9060005260206000209060040201600091509050806000018054620003529062001888565b60015460025460405160009187918791879173ffffffffffffffffffffffffffffffffffffffff909116908690889062000b1f9062001324565b62000b309695949392919062001ada565b604051809103906000f08015801562000b4d573d6000803e3d6000fd5b506040805160808101825285815260208082018a90528183018990526060820188905273ffffffffffffffffffffffffffffffffffffffff84166000908152600a9091529190912081519293509091819062000baa9082620019cb565b506020820151600182019062000bc19082620019cb565b506040820151600282019062000bd89082620019cb565b506060820151600382019062000bef9082620019cb565b5050506000828152600860205260408120805473ffffffffffffffffffffffffffffffffffffffff84167fffffffffffffffffffffffff0000000000000000000000000000000000000000918216811790925560048054600181810183559185527f8a35acfbc15ff81a39ae7d344fd709f28e8600b4aa8c65c6b64bfe7fe36bd19b018054909216909217905580549162000c8a8362001a98565b9190505550505050505050565b6060600380548060200260200160405190810160405280929190818152602001828054801562000aa55760200282019190600052602060002090815473ffffffffffffffffffffffffffffffffffffffff16815260019091019060200180831162000a79575050505050905090565b62000d396040518060a0016040528060608152602001606081526020016060815260200160608152602001606081525090565b73ffffffffffffffffffffffffffffffffffffffff821660009081526009602052604090819020815160a0810190925280548290829062000d7a9062001888565b80601f016020809104026020016040519081016040528092919081815260200182805462000da89062001888565b801562000df95780601f1062000dcd5761010080835404028352916020019162000df9565b820191906000526020600020905b81548152906001019060200180831162000ddb57829003601f168201915b5050505050815260200160018201805462000e149062001888565b80601f016020809104026020016040519081016040528092919081815260200182805462000e429062001888565b801562000e935780601f1062000e675761010080835404028352916020019162000e93565b820191906000526020600020905b81548152906001019060200180831162000e7557829003601f168201915b5050505050815260200160028201805462000eae9062001888565b80601f016020809104026020016040519081016040528092919081815260200182805462000edc9062001888565b801562000f2d5780601f1062000f015761010080835404028352916020019162000f2d565b820191906000526020600020905b81548152906001019060200180831162000f0f57829003601f168201915b5050505050815260200160038201805462000f489062001888565b80601f016020809104026020016040519081016040528092919081815260200182805462000f769062001888565b801562000fc75780601f1062000f9b5761010080835404028352916020019162000fc7565b820191906000526020600020905b81548152906001019060200180831162000fa957829003601f168201915b50505050508152602001600482018054620009af9062001888565b60096020526000908152604090208054819062000fff9062001888565b80601f01602080910402602001604051908101604052809291908181526020018280546200102d9062001888565b80156200107e5780601f1062001052576101008083540402835291602001916200107e565b820191906000526020600020905b8154815290600101906020018083116200106057829003601f168201915b505050505090806001018054620010959062001888565b80601f0160208091040260200160405190810160405280929190818152602001828054620010c39062001888565b8015620011145780601f10620010e85761010080835404028352916020019162001114565b820191906000526020600020905b815481529060010190602001808311620010f657829003601f168201915b5050505050908060020180546200112b9062001888565b80601f0160208091040260200160405190810160405280929190818152602001828054620011599062001888565b8015620011aa5780601f106200117e57610100808354040283529160200191620011aa565b820191906000526020600020905b8154815290600101906020018083116200118c57829003601f168201915b505050505090806003018054620011c19062001888565b80601f0160208091040260200160405190810160405280929190818152602001828054620011ef9062001888565b8015620012405780601f10620012145761010080835404028352916020019162001240565b820191906000526020600020905b8154815290600101906020018083116200122257829003601f168201915b505050505090806004018054620012579062001888565b80601f0160208091040260200160405190810160405280929190818152602001828054620012859062001888565b8015620012d65780601f10620012aa57610100808354040283529160200191620012d6565b820191906000526020600020905b815481529060010190602001808311620012b857829003601f168201915b5050505050905085565b60058181548110620012f157600080fd5b906000526020600020906005020160009150905080600001805462000fff9062001888565b610e8d8062001b5f83390190565b610f4880620029ec83390190565b6000602082840312156200134557600080fd5b813573ffffffffffffffffffffffffffffffffffffffff811681146200136a57600080fd5b9392505050565b6000815180845260005b8181101562001399576020818501810151868301820152016200137b565b506000602082860101526020601f19601f83011685010191505092915050565b608081526000620013ce608083018762001371565b8281036020840152620013e2818762001371565b90508281036040840152620013f8818662001371565b905082810360608401526200140e818562001371565b979650505050505050565b7f4e487b7100000000000000000000000000000000000000000000000000000000600052604160045260246000fd5b600082601f8301126200145a57600080fd5b813567ffffffffffffffff8082111562001478576200147862001419565b604051601f8301601f19908116603f01168101908282118183101715620014a357620014a362001419565b81604052838152866020858801011115620014bd57600080fd5b836020870160208301376000602085830101528094505050505092915050565b600080600080600060a08688031215620014f657600080fd5b853567ffffffffffffffff808211156200150f57600080fd5b6200151d89838a0162001448565b965060208801359150808211156200153457600080fd5b6200154289838a0162001448565b955060408801359150808211156200155957600080fd5b6200156789838a0162001448565b945060608801359150808211156200157e57600080fd5b6200158c89838a0162001448565b93506080880135915080821115620015a357600080fd5b50620015b28882890162001448565b9150509295509295909350565b600060208284031215620015d257600080fd5b5035919050565b602081526000825160806020840152620015f760a084018262001371565b90506020840151601f198085840301604086015262001617838362001371565b9250604086015191508085840301606086015262001636838362001371565b925060608601519150808584030160808601525062001656828262001371565b95945050505050565b6020808252825182820181905260009190848201906040850190845b81811015620016af57835173ffffffffffffffffffffffffffffffffffffffff16835292840192918401916001016200167b565b50909695505050505050565b60008060008060808587031215620016d257600080fd5b843567ffffffffffffffff80821115620016eb57600080fd5b620016f98883890162001448565b955060208701359150808211156200171057600080fd5b6200171e8883890162001448565b945060408701359150808211156200173557600080fd5b620017438883890162001448565b935060608701359150808211156200175a57600080fd5b50620017698782880162001448565b91505092959194509250565b602081526000825160a060208401526200179360c084018262001371565b90506020840151601f1980858403016040860152620017b3838362001371565b92506040860151915080858403016060860152620017d2838362001371565b92506060860151915080858403016080860152620017f1838362001371565b925060808601519150808584030160a08601525062001656828262001371565b60a0815260006200182660a083018862001371565b82810360208401526200183a818862001371565b9050828103604084015262001850818762001371565b9050828103606084015262001866818662001371565b905082810360808401526200187c818562001371565b98975050505050505050565b600181811c908216806200189d57607f821691505b602082108103620018d7577f4e487b7100000000000000000000000000000000000000000000000000000000600052602260045260246000fd5b50919050565b60e081526000620018f260e083018a62001371565b828103602084015262001906818a62001371565b905082810360408401526200191c818962001371565b905073ffffffffffffffffffffffffffffffffffffffff8716606084015285608084015282810360a084015262001954818662001371565b905082810360c08401526200196a818562001371565b9a9950505050505050505050565b601f821115620019c657600081815260208120601f850160051c81016020861015620019a15750805b601f850160051c820191505b81811015620019c257828155600101620019ad565b5050505b505050565b815167ffffffffffffffff811115620019e857620019e862001419565b62001a0081620019f9845462001888565b8462001978565b602080601f83116001811462001a38576000841562001a1f5750858301515b600019600386901b1c1916600185901b178555620019c2565b600085815260208120601f198616915b8281101562001a695788860151825594840194600190910190840162001a48565b508582101562001a885787850151600019600388901b60f8161c191681555b5050505050600190811b01905550565b6000600019820362001ad3577f4e487b7100000000000000000000000000000000000000000000000000000000600052601160045260246000fd5b5060010190565b60c08152600062001aef60c083018962001371565b828103602084015262001b03818962001371565b9050828103604084015262001b19818862001371565b905073ffffffffffffffffffffffffffffffffffffffff8616606084015284608084015282810360a084015262001b51818562001371565b999850505050505050505056fe60806040523480156200001157600080fd5b5060405162000e8d38038062000e8d83398101604081905262000034916200018e565b600080546001600160a01b0319166001600160a01b03861617905560046200005d88826200031a565b5060056200006c87826200031a565b5060066200007b86826200031a565b50600183905560026200008f83826200031a565b5060036200009e82826200031a565b5050505050505050620003e6565b634e487b7160e01b600052604160045260246000fd5b600082601f830112620000d457600080fd5b81516001600160401b0380821115620000f157620000f1620000ac565b604051601f8301601f19908116603f011681019082821181831017156200011c576200011c620000ac565b816040528381526020925086838588010111156200013957600080fd5b600091505b838210156200015d57858201830151818301840152908201906200013e565b600093810190920192909252949350505050565b80516001600160a01b03811681146200018957600080fd5b919050565b600080600080600080600060e0888a031215620001aa57600080fd5b87516001600160401b0380821115620001c257600080fd5b620001d08b838c01620000c2565b985060208a0151915080821115620001e757600080fd5b620001f58b838c01620000c2565b975060408a01519150808211156200020c57600080fd5b6200021a8b838c01620000c2565b96506200022a60608b0162000171565b955060808a0151945060a08a01519150808211156200024857600080fd5b620002568b838c01620000c2565b935060c08a01519150808211156200026d57600080fd5b506200027c8a828b01620000c2565b91505092959891949750929550565b600181811c90821680620002a057607f821691505b602082108103620002c157634e487b7160e01b600052602260045260246000fd5b50919050565b601f8211156200031557600081815260208120601f850160051c81016020861015620002f05750805b601f850160051c820191505b818110156200031157828155600101620002fc565b5050505b505050565b81516001600160401b03811115620003365762000336620000ac565b6200034e816200034784546200028b565b84620002c7565b602080601f8311600181146200038657600084156200036d5750858301515b600019600386901b1c1916600185901b17855562000311565b600085815260208120601f198616915b82811015620003b75788860151825594840194600190910190840162000396565b5085821015620003d65787850151600019600388901b60f8161c191681555b5050505050600190811b01905550565b610a9780620003f66000396000f3fe608060405234801561001057600080fd5b50600436106100c95760003560e01c806376cc589911610081578063c6d572ae1161005b578063c6d572ae14610190578063ce59654a14610198578063d02982cf146101a057600080fd5b806376cc5899146101345780637f50861a146101715780639360ceff1461018857600080fd5b80633283f192116100b25780633283f1921461010b57806345e2984a146101135780635e1648431461012a57600080fd5b8063152c84db146100ce578063327fcee5146100f6575b600080fd5b6100e16100dc3660046107cb565b6101b8565b60405190151581526020015b60405180910390f35b6100fe610276565b6040516100ed91906108f4565b6100fe610308565b61011b610317565b6040516100ed9392919061090e565b610132610502565b005b61013233600090815260076020526040902080547fffffffffffffffffffffffffffffffffffffffffffffffffffffffffffffff00166001179055565b61017a60015481565b6040519081526020016100ed565b6100fe610582565b6100fe610610565b61011b61061d565b3360009081526007602052604090205460ff166100e1565b600080546040517fea50d0e4000000000000000000000000000000000000000000000000000000008152829173ffffffffffffffffffffffffffffffffffffffff169063ea50d0e490610215908990899089908990600401610951565b602060405180830381865afa158015610232573d6000803e3d6000fd5b505050506040513d601f19601f8201168201806040525081019061025691906109ec565b9050801561026857600191505061026e565b60009150505b949350505050565b60606002805461028590610a0e565b80601f01602080910402602001604051908101604052809291908181526020018280546102b190610a0e565b80156102fe5780601f106102d3576101008083540402835291602001916102fe565b820191906000526020600020905b8154815290600101906020018083116102e157829003601f168201915b5050505050905090565b60606003805461028590610a0e565b606080606060006004600001805461032e90610a0e565b80601f016020809104026020016040519081016040528092919081815260200182805461035a90610a0e565b80156103a75780601f1061037c576101008083540402835291602001916103a7565b820191906000526020600020905b81548152906001019060200180831161038a57829003601f168201915b5050505050905060006103b78290565b90506000600460010180546103cb90610a0e565b80601f01602080910402602001604051908101604052809291908181526020018280546103f790610a0e565b80156104445780601f1061041957610100808354040283529160200191610444565b820191906000526020600020905b81548152906001019060200180831161042757829003601f168201915b5050505050905060006104548290565b905060006004600201805461046890610a0e565b80601f016020809104026020016040519081016040528092919081815260200182805461049490610a0e565b80156104e15780601f106104b6576101008083540402835291602001916104e1565b820191906000526020600020905b8154815290600101906020018083116104c457829003601f168201915b5050505050905060006104f18290565b949992985093965090945050505050565b3360009081526007602052604090205460ff1661054b576040517f15cc961f00000000000000000000000000000000000000000000000000000000815260040160405180910390fd5b33600090815260076020526040902080547fffffffffffffffffffffffffffffffffffffffffffffffffffffffffffffff00169055565b6003805461058f90610a0e565b80601f01602080910402602001604051908101604052809291908181526020018280546105bb90610a0e565b80156106085780601f106105dd57610100808354040283529160200191610608565b820191906000526020600020905b8154815290600101906020018083116105eb57829003601f168201915b505050505081565b6002805461058f90610a0e565b60048054819061062c90610a0e565b80601f016020809104026020016040519081016040528092919081815260200182805461065890610a0e565b80156106a55780601f1061067a576101008083540402835291602001916106a5565b820191906000526020600020905b81548152906001019060200180831161068857829003601f168201915b5050505050908060010180546106ba90610a0e565b80601f01602080910402602001604051908101604052809291908181526020018280546106e690610a0e565b80156107335780601f1061070857610100808354040283529160200191610733565b820191906000526020600020905b81548152906001019060200180831161071657829003601f168201915b50505050509080600201805461074890610a0e565b80601f016020809104026020016040519081016040528092919081815260200182805461077490610a0e565b80156107c15780601f10610796576101008083540402835291602001916107c1565b820191906000526020600020905b8154815290600101906020018083116107a457829003601f168201915b5050505050905083565b600080600080604085870312156107e157600080fd5b843567ffffffffffffffff808211156107f957600080fd5b818701915087601f83011261080d57600080fd5b81358181111561081c57600080fd5b88602082850101111561082e57600080fd5b60209283019650945090860135908082111561084957600080fd5b818701915087601f83011261085d57600080fd5b81358181111561086c57600080fd5b8860208260051b850101111561088157600080fd5b95989497505060200194505050565b6000815180845260005b818110156108b65760208185018101518683018201520161089a565b5060006020828601015260207fffffffffffffffffffffffffffffffffffffffffffffffffffffffffffffffe0601f83011685010191505092915050565b6020815260006109076020830184610890565b9392505050565b6060815260006109216060830186610890565b82810360208401526109338186610890565b905082810360408401526109478185610890565b9695505050505050565b604081528360408201528385606083013760006060858301015260007fffffffffffffffffffffffffffffffffffffffffffffffffffffffffffffffe0601f860116820160608382030160208401528360608201527f07ffffffffffffffffffffffffffffffffffffffffffffffffffffffffffffff8411156109d357600080fd5b8360051b80866080840137016080019695505050505050565b6000602082840312156109fe57600080fd5b8151801515811461090757600080fd5b600181811c90821680610a2257607f821691505b602082108103610a5b577f4e487b7100000000000000000000000000000000000000000000000000000000600052602260045260246000fd5b5091905056fea2646970667358221220e85b777dec171b9fa66c9efadfdea9441111bac97bc057fb5b2155bef97628b464736f6c6343000812003360806040523480156200001157600080fd5b5060405162000f4838038062000f4883398101604081905262000034916200017c565b600080546001600160a01b0319166001600160a01b03851617905560056200005d8782620002df565b5060066200006c8682620002df565b5060076200007b8582620002df565b5060046200008a8282620002df565b505060015550620003ab92505050565b634e487b7160e01b600052604160045260246000fd5b600082601f830112620000c257600080fd5b81516001600160401b0380821115620000df57620000df6200009a565b604051601f8301601f19908116603f011681019082821181831017156200010a576200010a6200009a565b816040528381526020925086838588010111156200012757600080fd5b600091505b838210156200014b57858201830151818301840152908201906200012c565b600093810190920192909252949350505050565b80516001600160a01b03811681146200017757600080fd5b919050565b60008060008060008060c087890312156200019657600080fd5b86516001600160401b0380821115620001ae57600080fd5b620001bc8a838b01620000b0565b97506020890151915080821115620001d357600080fd5b620001e18a838b01620000b0565b96506040890151915080821115620001f857600080fd5b620002068a838b01620000b0565b95506200021660608a016200015f565b94506080890151935060a08901519150808211156200023457600080fd5b506200024389828a01620000b0565b9150509295509295509295565b600181811c908216806200026557607f821691505b6020821081036200028657634e487b7160e01b600052602260045260246000fd5b50919050565b601f821115620002da57600081815260208120601f850160051c81016020861015620002b55750805b601f850160051c820191505b81811015620002d657828155600101620002c1565b5050505b505050565b81516001600160401b03811115620002fb57620002fb6200009a565b62000313816200030c845462000250565b846200028c565b602080601f8311600181146200034b5760008415620003325750858301515b600019600386901b1c1916600185901b178555620002d6565b600085815260208120601f198616915b828110156200037c578886015182559484019460019091019084016200035b565b50858210156200039b5787850151600019600388901b60f8161c191681555b5050505050600190811b01905550565b610b8d80620003bb6000396000f3fe608060405234801561001057600080fd5b50600436106100c95760003560e01c806363b6dcda11610081578063a311a7c01161005b578063a311a7c0146101a0578063bfe00a42146101a8578063d02982cf146101b057600080fd5b806363b6dcda146101795780636f13ab00146101815780639930a73c1461019857600080fd5b80633674067f116100b25780633674067f1461010b57806344bdc9271461012357806345e2984a1461016257600080fd5b806317f32053146100ce57806318769765146100f6575b600080fd5b6100e16100dc366004610869565b6101c8565b60405190151581526020015b60405180910390f35b6100fe610286565b6040516100ed9190610992565b610113610314565b6040516100ed94939291906109ac565b61016033600090815260086020526040902080547fffffffffffffffffffffffffffffffffffffffffffffffffffffffffffffff00166001179055565b005b61016a610550565b6040516100ed93929190610a04565b6100fe61073b565b61018a60015481565b6040519081526020016100ed565b6100fe6107cd565b6100fe6107da565b6101606107e9565b3360009081526008602052604090205460ff166100e1565b600080546040517fea50d0e4000000000000000000000000000000000000000000000000000000008152829173ffffffffffffffffffffffffffffffffffffffff169063ea50d0e490610225908990899089908990600401610a47565b602060405180830381865afa158015610242573d6000803e3d6000fd5b505050506040513d601f19601f820116820180604052508101906102669190610ae2565b9050801561027857600191505061027e565b60009150505b949350505050565b6002805461029390610b04565b80601f01602080910402602001604051908101604052809291908181526020018280546102bf90610b04565b801561030c5780601f106102e15761010080835404028352916020019161030c565b820191906000526020600020905b8154815290600101906020018083116102ef57829003601f168201915b505050505081565b60048054819061032390610b04565b80601f016020809104026020016040519081016040528092919081815260200182805461034f90610b04565b801561039c5780601f106103715761010080835404028352916020019161039c565b820191906000526020600020905b81548152906001019060200180831161037f57829003601f168201915b5050505050908060010180546103b190610b04565b80601f01602080910402602001604051908101604052809291908181526020018280546103dd90610b04565b801561042a5780601f106103ff5761010080835404028352916020019161042a565b820191906000526020600020905b81548152906001019060200180831161040d57829003601f168201915b50505050509080600201805461043f90610b04565b80601f016020809104026020016040519081016040528092919081815260200182805461046b90610b04565b80156104b85780601f1061048d576101008083540402835291602001916104b8565b820191906000526020600020905b81548152906001019060200180831161049b57829003601f168201915b5050505050908060030180546104cd90610b04565b80601f01602080910402602001604051908101604052809291908181526020018280546104f990610b04565b80156105465780601f1061051b57610100808354040283529160200191610546565b820191906000526020600020905b81548152906001019060200180831161052957829003601f168201915b5050505050905084565b606080606060006004600101805461056790610b04565b80601f016020809104026020016040519081016040528092919081815260200182805461059390610b04565b80156105e05780601f106105b5576101008083540402835291602001916105e0565b820191906000526020600020905b8154815290600101906020018083116105c357829003601f168201915b5050505050905060006105f08290565b905060006004600201805461060490610b04565b80601f016020809104026020016040519081016040528092919081815260200182805461063090610b04565b801561067d5780601f106106525761010080835404028352916020019161067d565b820191906000526020600020905b81548152906001019060200180831161066057829003601f168201915b50505050509050600061068d8290565b90506000600460030180546106a190610b04565b80601f01602080910402602001604051908101604052809291908181526020018280546106cd90610b04565b801561071a5780601f106106ef5761010080835404028352916020019161071a565b820191906000526020600020905b8154815290600101906020018083116106fd57829003601f168201915b50505050509050600061072a8290565b949992985093965090945050505050565b60606002805461074a90610b04565b80601f016020809104026020016040519081016040528092919081815260200182805461077690610b04565b80156107c35780601f10610798576101008083540402835291602001916107c3565b820191906000526020600020905b8154815290600101906020018083116107a657829003601f168201915b5050505050905090565b6003805461029390610b04565b60606003805461074a90610b04565b3360009081526008602052604090205460ff16610832576040517f15cc961f00000000000000000000000000000000000000000000000000000000815260040160405180910390fd5b33600090815260086020526040902080547fffffffffffffffffffffffffffffffffffffffffffffffffffffffffffffff00169055565b6000806000806040858703121561087f57600080fd5b843567ffffffffffffffff8082111561089757600080fd5b818701915087601f8301126108ab57600080fd5b8135818111156108ba57600080fd5b8860208285010111156108cc57600080fd5b6020928301965094509086013590808211156108e757600080fd5b818701915087601f8301126108fb57600080fd5b81358181111561090a57600080fd5b8860208260051b850101111561091f57600080fd5b95989497505060200194505050565b6000815180845260005b8181101561095457602081850181015186830182015201610938565b5060006020828601015260207fffffffffffffffffffffffffffffffffffffffffffffffffffffffffffffffe0601f83011685010191505092915050565b6020815260006109a5602083018461092e565b9392505050565b6080815260006109bf608083018761092e565b82810360208401526109d1818761092e565b905082810360408401526109e5818661092e565b905082810360608401526109f9818561092e565b979650505050505050565b606081526000610a17606083018661092e565b8281036020840152610a29818661092e565b90508281036040840152610a3d818561092e565b9695505050505050565b604081528360408201528385606083013760006060858301015260007fffffffffffffffffffffffffffffffffffffffffffffffffffffffffffffffe0601f860116820160608382030160208401528360608201527f07ffffffffffffffffffffffffffffffffffffffffffffffffffffffffffffff841115610ac957600080fd5b8360051b80866080840137016080019695505050505050565b600060208284031215610af457600080fd5b815180151581146109a557600080fd5b600181811c90821680610b1857607f821691505b602082108103610b51577f4e487b7100000000000000000000000000000000000000000000000000000000600052602260045260246000fd5b5091905056fea264697066735822122023890a672aaf34a4ff08cb99bdfb7f3ef3d1f6bae124d69340e3d7da77a5537264736f6c63430008120033a26469706673582212205f6fdbcef2e2f10d6beaadd3f1abac8f73ef9d58bf693cfcc7dfb4a119df982064736f6c63430008120033",
  "linkReferences": {},
  "deployedLinkReferences": {}
}