{
  "_format": "hh-sol-artifact-1",
  "contractName": "Factory",
  "sourceName": "contracts/Factory.sol",
  "address": "0x81FCA32bdddA690bd3Fa3EC52025c7Ca25527055",
  "abi": [
    {
      "inputs": [
        {
          "internalType": "address",
          "name": "_verifier",
          "type": "address"
        }
      ],
      "stateMutability": "nonpayable",
      "type": "constructor"
    },
    {
      "inputs": [
        {
          "internalType": "address",
          "name": "",
          "type": "address"
        }
      ],
      "name": "addressToCommunityDetails",
      "outputs": [
        {
          "internalType": "string",
          "name": "communityName",
          "type": "string"
        },
        {
          "internalType": "string",
          "name": "communityDescription",
          "type": "string"
        },
        {
          "internalType": "string",
          "name": "domainPub",
          "type": "string"
        },
        {
          "internalType": "string",
          "name": "regionPub",
          "type": "string"
        },
        {
          "internalType": "string",
          "name": "genderPub",
          "type": "string"
        }
      ],
      "stateMutability": "view",
      "type": "function"
    },
    {
      "inputs": [
        {
          "internalType": "address",
          "name": "",
          "type": "address"
        }
      ],
      "name": "addressToPollDetails",
      "outputs": [
        {
          "internalType": "string",
          "name": "pollName",
          "type": "string"
        },
        {
          "internalType": "string",
          "name": "pollDescription",
          "type": "string"
        },
        {
          "internalType": "string",
          "name": "domainPub",
          "type": "string"
        },
        {
          "internalType": "string",
          "name": "regionPub",
          "type": "string"
        },
        {
          "internalType": "string",
          "name": "genderPub",
          "type": "string"
        }
      ],
      "stateMutability": "view",
      "type": "function"
    },
    {
      "inputs": [
        {
          "internalType": "uint256",
          "name": "",
          "type": "uint256"
        }
      ],
      "name": "communityDetails",
      "outputs": [
        {
          "internalType": "string",
          "name": "communityName",
          "type": "string"
        },
        {
          "internalType": "string",
          "name": "communityDescription",
          "type": "string"
        },
        {
          "internalType": "string",
          "name": "domainPub",
          "type": "string"
        },
        {
          "internalType": "string",
          "name": "regionPub",
          "type": "string"
        },
        {
          "internalType": "string",
          "name": "genderPub",
          "type": "string"
        }
      ],
      "stateMutability": "view",
      "type": "function"
    },
    {
      "inputs": [
        {
          "internalType": "string",
          "name": "_domainPub",
          "type": "string"
        },
        {
          "internalType": "string",
          "name": "_regionPub",
          "type": "string"
        },
        {
          "internalType": "string",
          "name": "_genderPub",
          "type": "string"
        },
        {
          "internalType": "string",
          "name": "_communityName",
          "type": "string"
        },
        {
          "internalType": "string",
          "name": "_communityDescription",
          "type": "string"
        }
      ],
      "name": "createCommunity",
      "outputs": [],
      "stateMutability": "nonpayable",
      "type": "function"
    },
    {
      "inputs": [
        {
          "internalType": "string",
          "name": "_domainPub",
          "type": "string"
        },
        {
          "internalType": "string",
          "name": "_regionPub",
          "type": "string"
        },
        {
          "internalType": "string",
          "name": "_genderPub",
          "type": "string"
        },
        {
          "internalType": "string",
          "name": "_pollName",
          "type": "string"
        },
        {
          "internalType": "string",
          "name": "_pollDescription",
          "type": "string"
        }
      ],
      "name": "createPoll",
      "outputs": [],
      "stateMutability": "nonpayable",
      "type": "function"
    },
    {
      "inputs": [],
      "name": "getAllCommunities",
      "outputs": [
        {
          "internalType": "address[]",
          "name": "",
          "type": "address[]"
        }
      ],
      "stateMutability": "view",
      "type": "function"
    },
    {
      "inputs": [],
      "name": "getAllPolls",
      "outputs": [
        {
          "internalType": "address[]",
          "name": "",
          "type": "address[]"
        }
      ],
      "stateMutability": "view",
      "type": "function"
    },
    {
      "inputs": [
        {
          "internalType": "uint256",
          "name": "_id",
          "type": "uint256"
        }
      ],
      "name": "getCommunity",
      "outputs": [
        {
          "internalType": "address",
          "name": "",
          "type": "address"
        }
      ],
      "stateMutability": "view",
      "type": "function"
    },
    {
      "inputs": [
        {
          "internalType": "address",
          "name": "_communityAddress",
          "type": "address"
        }
      ],
      "name": "getCommunityDetails",
      "outputs": [
        {
          "components": [
            {
              "internalType": "string",
              "name": "communityName",
              "type": "string"
            },
            {
              "internalType": "string",
              "name": "communityDescription",
              "type": "string"
            },
            {
              "internalType": "string",
              "name": "domainPub",
              "type": "string"
            },
            {
              "internalType": "string",
              "name": "regionPub",
              "type": "string"
            },
            {
              "internalType": "string",
              "name": "genderPub",
              "type": "string"
            }
          ],
          "internalType": "struct Factory.CommunityDetails",
          "name": "",
          "type": "tuple"
        }
      ],
      "stateMutability": "view",
      "type": "function"
    },
    {
      "inputs": [
        {
          "internalType": "uint256",
          "name": "_id",
          "type": "uint256"
        }
      ],
      "name": "getPoll",
      "outputs": [
        {
          "internalType": "address",
          "name": "",
          "type": "address"
        }
      ],
      "stateMutability": "view",
      "type": "function"
    },
    {
      "inputs": [
        {
          "internalType": "address",
          "name": "_pollAddress",
          "type": "address"
        }
      ],
      "name": "getPollDetails",
      "outputs": [
        {
          "components": [
            {
              "internalType": "string",
              "name": "pollName",
              "type": "string"
            },
            {
              "internalType": "string",
              "name": "pollDescription",
              "type": "string"
            },
            {
              "internalType": "string",
              "name": "domainPub",
              "type": "string"
            },
            {
              "internalType": "string",
              "name": "regionPub",
              "type": "string"
            },
            {
              "internalType": "string",
              "name": "genderPub",
              "type": "string"
            }
          ],
          "internalType": "struct Factory.PollDetails",
          "name": "",
          "type": "tuple"
        }
      ],
      "stateMutability": "view",
      "type": "function"
    },
    {
      "inputs": [
        {
          "internalType": "uint256",
          "name": "",
          "type": "uint256"
        }
      ],
      "name": "idToCommunity",
      "outputs": [
        {
          "internalType": "address",
          "name": "",
          "type": "address"
        }
      ],
      "stateMutability": "view",
      "type": "function"
    },
    {
      "inputs": [
        {
          "internalType": "uint256",
          "name": "",
          "type": "uint256"
        }
      ],
      "name": "idToPoll",
      "outputs": [
        {
          "internalType": "address",
          "name": "",
          "type": "address"
        }
      ],
      "stateMutability": "view",
      "type": "function"
    },
    {
      "inputs": [
        {
          "internalType": "uint256",
          "name": "",
          "type": "uint256"
        }
      ],
      "name": "pollDetails",
      "outputs": [
        {
          "internalType": "string",
          "name": "pollName",
          "type": "string"
        },
        {
          "internalType": "string",
          "name": "pollDescription",
          "type": "string"
        },
        {
          "internalType": "string",
          "name": "domainPub",
          "type": "string"
        },
        {
          "internalType": "string",
          "name": "regionPub",
          "type": "string"
        },
        {
          "internalType": "string",
          "name": "genderPub",
          "type": "string"
        }
      ],
      "stateMutability": "view",
      "type": "function"
    }
  ],
  "bytecode": "0x608060405234801561001057600080fd5b5060405161328938038061328983398101604081905261002f9161005c565b600280546001600160a01b0319166001600160a01b0392909216919091179055600080805560015561008c565b60006020828403121561006e57600080fd5b81516001600160a01b038116811461008557600080fd5b9392505050565b6131ee8061009b6000396000f3fe60806040523480156200001157600080fd5b5060043610620000fd5760003560e01c80633bf097281162000097578063c16cd64c116200006e578063c16cd64c1462000274578063c617f41a146200028b578063e5b5611414620002a2578063f8e7c39f14620002db57600080fd5b80633bf09728146200023c57806395dd0ed01462000253578063b5737c10146200025d57600080fd5b80631b0589ce11620000d85780631b0589ce14620001ad5780632ed002fc14620001c457806332b633fa14620001ea578063370603f8146200020357600080fd5b8063052ba5d2146200010257806313f84f5d14620001355780631a8cbcaa146200014e575b600080fd5b620001196200011336600462000ef2565b62000314565b6040516200012c95949392919062000f79565b60405180910390f35b6200014c62000146366004620010b4565b62000612565b005b620001876200015f36600462001196565b60009081526008602052604090205473ffffffffffffffffffffffffffffffffffffffff1690565b60405173ffffffffffffffffffffffffffffffffffffffff90911681526020016200012c565b6200014c620001be366004620010b4565b620007e9565b620001db620001d536600462000ef2565b620009b3565b6040516200012c91906200123f565b620001f462000d1e565b6040516200012c919062001254565b620001876200021436600462001196565b60009081526007602052604090205473ffffffffffffffffffffffffffffffffffffffff1690565b620001196200024d36600462001196565b62000d8f565b620001f462000dc5565b620001db6200026e36600462000ef2565b62000e34565b620001196200028536600462000ef2565b62000ea8565b620001196200029c36600462001196565b62000ec5565b62000187620002b336600462001196565b60086020526000908152604090205473ffffffffffffffffffffffffffffffffffffffff1681565b62000187620002ec36600462001196565b60076020526000908152604090205473ffffffffffffffffffffffffffffffffffffffff1681565b600a602052600090815260409020805481906200033190620012b0565b80601f01602080910402602001604051908101604052809291908181526020018280546200035f90620012b0565b8015620003b05780601f106200038457610100808354040283529160200191620003b0565b820191906000526020600020905b8154815290600101906020018083116200039257829003601f168201915b505050505090806001018054620003c790620012b0565b80601f0160208091040260200160405190810160405280929190818152602001828054620003f590620012b0565b8015620004465780601f106200041a5761010080835404028352916020019162000446565b820191906000526020600020905b8154815290600101906020018083116200042857829003601f168201915b5050505050908060020180546200045d90620012b0565b80601f01602080910402602001604051908101604052809291908181526020018280546200048b90620012b0565b8015620004dc5780601f10620004b057610100808354040283529160200191620004dc565b820191906000526020600020905b815481529060010190602001808311620004be57829003601f168201915b505050505090806003018054620004f390620012b0565b80601f01602080910402602001604051908101604052809291908181526020018280546200052190620012b0565b8015620005725780601f10620005465761010080835404028352916020019162000572565b820191906000526020600020905b8154815290600101906020018083116200055457829003601f168201915b5050505050908060040180546200058990620012b0565b80601f0160208091040260200160405190810160405280929190818152602001828054620005b790620012b0565b8015620006085780601f10620005dc5761010080835404028352916020019162000608565b820191906000526020600020905b815481529060010190602001808311620005ea57829003601f168201915b5050505050905085565b6000805490506000868686600260009054906101000a900473ffffffffffffffffffffffffffffffffffffffff16858888604051620006519062000ed6565b62000663979695949392919062001305565b604051809103906000f08015801562000680573d6000803e3d6000fd5b506040805160a08101825286815260208082018790528183018b9052606082018a90526080820189905273ffffffffffffffffffffffffffffffffffffffff84166000908152600990915291909120815192935090918190620006e49082620013f3565b5060208201516001820190620006fb9082620013f3565b5060408201516002820190620007129082620013f3565b5060608201516003820190620007299082620013f3565b5060808201516004820190620007409082620013f3565b5050506000828152600760205260408120805473ffffffffffffffffffffffffffffffffffffffff84167fffffffffffffffffffffffff00000000000000000000000000000000000000009182168117909255600380546001810182559084527fc2575a0e9e593c00f959f8c92f12db2869c3395a3b0502d05e2516446f71f85b018054909116909117905580549080620007db83620014c0565b919050555050505050505050565b600060015490506000868686600260009054906101000a900473ffffffffffffffffffffffffffffffffffffffff16858888604051620008299062000ee4565b6200083b979695949392919062001305565b604051809103906000f08015801562000858573d6000803e3d6000fd5b506040805160a08101825286815260208082018790528183018b9052606082018a90526080820189905273ffffffffffffffffffffffffffffffffffffffff84166000908152600a90915291909120815192935090918190620008bc9082620013f3565b5060208201516001820190620008d39082620013f3565b5060408201516002820190620008ea9082620013f3565b5060608201516003820190620009019082620013f3565b5060808201516004820190620009189082620013f3565b5050506000828152600860205260408120805473ffffffffffffffffffffffffffffffffffffffff84167fffffffffffffffffffffffff0000000000000000000000000000000000000000918216811790925560048054600181810183559185527f8a35acfbc15ff81a39ae7d344fd709f28e8600b4aa8c65c6b64bfe7fe36bd19b0180549092169092179055805491620007db83620014c0565b620009e66040518060a0016040528060608152602001606081526020016060815260200160608152602001606081525090565b73ffffffffffffffffffffffffffffffffffffffff82166000908152600a602052604090819020815160a0810190925280548290829062000a2790620012b0565b80601f016020809104026020016040519081016040528092919081815260200182805462000a5590620012b0565b801562000aa65780601f1062000a7a5761010080835404028352916020019162000aa6565b820191906000526020600020905b81548152906001019060200180831162000a8857829003601f168201915b5050505050815260200160018201805462000ac190620012b0565b80601f016020809104026020016040519081016040528092919081815260200182805462000aef90620012b0565b801562000b405780601f1062000b145761010080835404028352916020019162000b40565b820191906000526020600020905b81548152906001019060200180831162000b2257829003601f168201915b5050505050815260200160028201805462000b5b90620012b0565b80601f016020809104026020016040519081016040528092919081815260200182805462000b8990620012b0565b801562000bda5780601f1062000bae5761010080835404028352916020019162000bda565b820191906000526020600020905b81548152906001019060200180831162000bbc57829003601f168201915b5050505050815260200160038201805462000bf590620012b0565b80601f016020809104026020016040519081016040528092919081815260200182805462000c2390620012b0565b801562000c745780601f1062000c485761010080835404028352916020019162000c74565b820191906000526020600020905b81548152906001019060200180831162000c5657829003601f168201915b5050505050815260200160048201805462000c8f90620012b0565b80601f016020809104026020016040519081016040528092919081815260200182805462000cbd90620012b0565b801562000d0e5780601f1062000ce25761010080835404028352916020019162000d0e565b820191906000526020600020905b81548152906001019060200180831162000cf057829003601f168201915b5050505050815250509050919050565b6060600480548060200260200160405190810160405280929190818152602001828054801562000d8557602002820191906000526020600020905b815473ffffffffffffffffffffffffffffffffffffffff16815260019091019060200180831162000d59575b5050505050905090565b6006818154811062000da057600080fd5b90600052602060002090600502016000915090508060000180546200033190620012b0565b6060600380548060200260200160405190810160405280929190818152602001828054801562000d855760200282019190600052602060002090815473ffffffffffffffffffffffffffffffffffffffff16815260019091019060200180831162000d59575050505050905090565b62000e676040518060a0016040528060608152602001606081526020016060815260200160608152602001606081525090565b73ffffffffffffffffffffffffffffffffffffffff821660009081526009602052604090819020815160a0810190925280548290829062000a2790620012b0565b6009602052600090815260409020805481906200033190620012b0565b6005818154811062000da057600080fd5b610e4b806200150383390190565b610e6b806200234e83390190565b60006020828403121562000f0557600080fd5b813573ffffffffffffffffffffffffffffffffffffffff8116811462000f2a57600080fd5b9392505050565b6000815180845260005b8181101562000f595760208185018101518683018201520162000f3b565b506000602082860101526020601f19601f83011685010191505092915050565b60a08152600062000f8e60a083018862000f31565b828103602084015262000fa2818862000f31565b9050828103604084015262000fb8818762000f31565b9050828103606084015262000fce818662000f31565b9050828103608084015262000fe4818562000f31565b98975050505050505050565b7f4e487b7100000000000000000000000000000000000000000000000000000000600052604160045260246000fd5b600082601f8301126200103157600080fd5b813567ffffffffffffffff808211156200104f576200104f62000ff0565b604051601f8301601f19908116603f011681019082821181831017156200107a576200107a62000ff0565b816040528381528660208588010111156200109457600080fd5b836020870160208301376000602085830101528094505050505092915050565b600080600080600060a08688031215620010cd57600080fd5b853567ffffffffffffffff80821115620010e657600080fd5b620010f489838a016200101f565b965060208801359150808211156200110b57600080fd5b6200111989838a016200101f565b955060408801359150808211156200113057600080fd5b6200113e89838a016200101f565b945060608801359150808211156200115557600080fd5b6200116389838a016200101f565b935060808801359150808211156200117a57600080fd5b5062001189888289016200101f565b9150509295509295909350565b600060208284031215620011a957600080fd5b5035919050565b6000815160a08452620011c760a085018262000f31565b905060208301518482036020860152620011e2828262000f31565b91505060408301518482036040860152620011fe828262000f31565b915050606083015184820360608601526200121a828262000f31565b9150506080830151848203608086015262001236828262000f31565b95945050505050565b60208152600062000f2a6020830184620011b0565b6020808252825182820181905260009190848201906040850190845b81811015620012a457835173ffffffffffffffffffffffffffffffffffffffff168352928401929184019160010162001270565b50909695505050505050565b600181811c90821680620012c557607f821691505b602082108103620012ff577f4e487b7100000000000000000000000000000000000000000000000000000000600052602260045260246000fd5b50919050565b60e0815260006200131a60e083018a62000f31565b82810360208401526200132e818a62000f31565b9050828103604084015262001344818962000f31565b905073ffffffffffffffffffffffffffffffffffffffff8716606084015285608084015282810360a08401526200137c818662000f31565b905082810360c084015262001392818562000f31565b9a9950505050505050505050565b601f821115620013ee57600081815260208120601f850160051c81016020861015620013c95750805b601f850160051c820191505b81811015620013ea57828155600101620013d5565b5050505b505050565b815167ffffffffffffffff81111562001410576200141062000ff0565b6200142881620014218454620012b0565b84620013a0565b602080601f831160018114620014605760008415620014475750858301515b600019600386901b1c1916600185901b178555620013ea565b600085815260208120601f198616915b82811015620014915788860151825594840194600190910190840162001470565b5085821015620014b05787850151600019600388901b60f8161c191681555b5050505050600190811b01905550565b60006000198203620014fb577f4e487b7100000000000000000000000000000000000000000000000000000000600052601160045260246000fd5b506001019056fe60806040523480156200001157600080fd5b5060405162000e4b38038062000e4b83398101604081905262000034916200018e565b600080546001600160a01b0319166001600160a01b03861617905560046200005d88826200031a565b5060056200006c87826200031a565b5060066200007b86826200031a565b50600183905560026200008f83826200031a565b5060036200009e82826200031a565b5050505050505050620003e6565b634e487b7160e01b600052604160045260246000fd5b600082601f830112620000d457600080fd5b81516001600160401b0380821115620000f157620000f1620000ac565b604051601f8301601f19908116603f011681019082821181831017156200011c576200011c620000ac565b816040528381526020925086838588010111156200013957600080fd5b600091505b838210156200015d57858201830151818301840152908201906200013e565b600093810190920192909252949350505050565b80516001600160a01b03811681146200018957600080fd5b919050565b600080600080600080600060e0888a031215620001aa57600080fd5b87516001600160401b0380821115620001c257600080fd5b620001d08b838c01620000c2565b985060208a0151915080821115620001e757600080fd5b620001f58b838c01620000c2565b975060408a01519150808211156200020c57600080fd5b6200021a8b838c01620000c2565b96506200022a60608b0162000171565b955060808a0151945060a08a01519150808211156200024857600080fd5b620002568b838c01620000c2565b935060c08a01519150808211156200026d57600080fd5b506200027c8a828b01620000c2565b91505092959891949750929550565b600181811c90821680620002a057607f821691505b602082108103620002c157634e487b7160e01b600052602260045260246000fd5b50919050565b601f8211156200031557600081815260208120601f850160051c81016020861015620002f05750805b601f850160051c820191505b818110156200031157828155600101620002fc565b5050505b505050565b81516001600160401b03811115620003365762000336620000ac565b6200034e816200034784546200028b565b84620002c7565b602080601f8311600181146200038657600084156200036d5750858301515b600019600386901b1c1916600185901b17855562000311565b600085815260208120601f198616915b82811015620003b75788860151825594840194600190910190840162000396565b5085821015620003d65787850151600019600388901b60f8161c191681555b5050505050600190811b01905550565b610a5580620003f66000396000f3fe608060405234801561001057600080fd5b50600436106100a35760003560e01c80635e16484311610076578063c6d572ae1161005b578063c6d572ae14610116578063ce59654a1461011e578063d02982cf1461012657600080fd5b80635e164843146101045780639360ceff1461010e57600080fd5b8063152c84db146100a8578063327fcee5146100d05780633283f192146100e557806345e2984a146100ed575b600080fd5b6100bb6100b6366004610789565b61013e565b60405190151581526020015b60405180910390f35b6100d8610234565b6040516100c791906108b2565b6100d86102c6565b6100f56102d5565b6040516100c7939291906108cc565b61010c6104c0565b005b6100d8610540565b6100d86105ce565b6100f56105db565b3360009081526007602052604090205460ff166100bb565b600080546040517fea50d0e4000000000000000000000000000000000000000000000000000000008152829173ffffffffffffffffffffffffffffffffffffffff169063ea50d0e49061019b90899089908990899060040161090f565b602060405180830381865afa1580156101b8573d6000803e3d6000fd5b505050506040513d601f19601f820116820180604052508101906101dc91906109aa565b9050801561022657505033600090815260076020526040902080547fffffffffffffffffffffffffffffffffffffffffffffffffffffffffffffff0016600190811790915561022c565b60009150505b949350505050565b606060028054610243906109cc565b80601f016020809104026020016040519081016040528092919081815260200182805461026f906109cc565b80156102bc5780601f10610291576101008083540402835291602001916102bc565b820191906000526020600020905b81548152906001019060200180831161029f57829003601f168201915b5050505050905090565b606060038054610243906109cc565b60608060606000600460000180546102ec906109cc565b80601f0160208091040260200160405190810160405280929190818152602001828054610318906109cc565b80156103655780601f1061033a57610100808354040283529160200191610365565b820191906000526020600020905b81548152906001019060200180831161034857829003601f168201915b5050505050905060006103758290565b9050600060046001018054610389906109cc565b80601f01602080910402602001604051908101604052809291908181526020018280546103b5906109cc565b80156104025780601f106103d757610100808354040283529160200191610402565b820191906000526020600020905b8154815290600101906020018083116103e557829003601f168201915b5050505050905060006104128290565b9050600060046002018054610426906109cc565b80601f0160208091040260200160405190810160405280929190818152602001828054610452906109cc565b801561049f5780601f106104745761010080835404028352916020019161049f565b820191906000526020600020905b81548152906001019060200180831161048257829003601f168201915b5050505050905060006104af8290565b949992985093965090945050505050565b3360009081526007602052604090205460ff16610509576040517f15cc961f00000000000000000000000000000000000000000000000000000000815260040160405180910390fd5b33600090815260076020526040902080547fffffffffffffffffffffffffffffffffffffffffffffffffffffffffffffff00169055565b6003805461054d906109cc565b80601f0160208091040260200160405190810160405280929190818152602001828054610579906109cc565b80156105c65780601f1061059b576101008083540402835291602001916105c6565b820191906000526020600020905b8154815290600101906020018083116105a957829003601f168201915b505050505081565b6002805461054d906109cc565b6004805481906105ea906109cc565b80601f0160208091040260200160405190810160405280929190818152602001828054610616906109cc565b80156106635780601f1061063857610100808354040283529160200191610663565b820191906000526020600020905b81548152906001019060200180831161064657829003601f168201915b505050505090806001018054610678906109cc565b80601f01602080910402602001604051908101604052809291908181526020018280546106a4906109cc565b80156106f15780601f106106c6576101008083540402835291602001916106f1565b820191906000526020600020905b8154815290600101906020018083116106d457829003601f168201915b505050505090806002018054610706906109cc565b80601f0160208091040260200160405190810160405280929190818152602001828054610732906109cc565b801561077f5780601f106107545761010080835404028352916020019161077f565b820191906000526020600020905b81548152906001019060200180831161076257829003601f168201915b5050505050905083565b6000806000806040858703121561079f57600080fd5b843567ffffffffffffffff808211156107b757600080fd5b818701915087601f8301126107cb57600080fd5b8135818111156107da57600080fd5b8860208285010111156107ec57600080fd5b60209283019650945090860135908082111561080757600080fd5b818701915087601f83011261081b57600080fd5b81358181111561082a57600080fd5b8860208260051b850101111561083f57600080fd5b95989497505060200194505050565b6000815180845260005b8181101561087457602081850181015186830182015201610858565b5060006020828601015260207fffffffffffffffffffffffffffffffffffffffffffffffffffffffffffffffe0601f83011685010191505092915050565b6020815260006108c5602083018461084e565b9392505050565b6060815260006108df606083018661084e565b82810360208401526108f1818661084e565b90508281036040840152610905818561084e565b9695505050505050565b604081528360408201528385606083013760006060858301015260007fffffffffffffffffffffffffffffffffffffffffffffffffffffffffffffffe0601f860116820160608382030160208401528360608201527f07ffffffffffffffffffffffffffffffffffffffffffffffffffffffffffffff84111561099157600080fd5b8360051b80866080840137016080019695505050505050565b6000602082840312156109bc57600080fd5b815180151581146108c557600080fd5b600181811c908216806109e057607f821691505b602082108103610a19577f4e487b7100000000000000000000000000000000000000000000000000000000600052602260045260246000fd5b5091905056fea264697066735822122011bc44aefacbcfb2bf10db2db4a5d49295b0f95e8551230ccf9a82e83d82543564736f6c6343000812003360806040523480156200001157600080fd5b5060405162000e6b38038062000e6b83398101604081905262000034916200018e565b600080546001600160a01b0319166001600160a01b03861617905560046200005d88826200031a565b5060056200006c87826200031a565b5060066200007b86826200031a565b50600183905560026200008f83826200031a565b5060036200009e82826200031a565b5050505050505050620003e6565b634e487b7160e01b600052604160045260246000fd5b600082601f830112620000d457600080fd5b81516001600160401b0380821115620000f157620000f1620000ac565b604051601f8301601f19908116603f011681019082821181831017156200011c576200011c620000ac565b816040528381526020925086838588010111156200013957600080fd5b600091505b838210156200015d57858201830151818301840152908201906200013e565b600093810190920192909252949350505050565b80516001600160a01b03811681146200018957600080fd5b919050565b600080600080600080600060e0888a031215620001aa57600080fd5b87516001600160401b0380821115620001c257600080fd5b620001d08b838c01620000c2565b985060208a0151915080821115620001e757600080fd5b620001f58b838c01620000c2565b975060408a01519150808211156200020c57600080fd5b6200021a8b838c01620000c2565b96506200022a60608b0162000171565b955060808a0151945060a08a01519150808211156200024857600080fd5b620002568b838c01620000c2565b935060c08a01519150808211156200026d57600080fd5b506200027c8a828b01620000c2565b91505092959891949750929550565b600181811c90821680620002a057607f821691505b602082108103620002c157634e487b7160e01b600052602260045260246000fd5b50919050565b601f8211156200031557600081815260208120601f850160051c81016020861015620002f05750805b601f850160051c820191505b818110156200031157828155600101620002fc565b5050505b505050565b81516001600160401b03811115620003365762000336620000ac565b6200034e816200034784546200028b565b84620002c7565b602080601f8311600181146200038657600084156200036d5750858301515b600019600386901b1c1916600185901b17855562000311565b600085815260208120601f198616915b82811015620003b75788860151825594840194600190910190840162000396565b5085821015620003d65787850151600019600388901b60f8161c191681555b5050505050600190811b01905550565b610a7580620003f66000396000f3fe608060405234801561001057600080fd5b50600436106100be5760003560e01c806363b6dcda11610076578063a311a7c01161005b578063a311a7c01461016e578063bfe00a4214610176578063d02982cf1461017e57600080fd5b806363b6dcda1461015e5780639930a73c1461016657600080fd5b80633674067f116100a75780633674067f1461010057806344bdc9271461011757806345e2984a1461015657600080fd5b806317f32053146100c357806318769765146100eb575b600080fd5b6100d66100d13660046107a9565b610196565b60405190151581526020015b60405180910390f35b6100f3610254565b6040516100e291906108d2565b6101086102e2565b6040516100e2939291906108ec565b61015433600090815260076020526040902080547fffffffffffffffffffffffffffffffffffffffffffffffffffffffffffffff00166001179055565b005b610108610490565b6100f361067b565b6100f361070d565b6100f361071a565b610154610729565b3360009081526007602052604090205460ff166100d6565b600080546040517fea50d0e4000000000000000000000000000000000000000000000000000000008152829173ffffffffffffffffffffffffffffffffffffffff169063ea50d0e4906101f390899089908990899060040161092f565b602060405180830381865afa158015610210573d6000803e3d6000fd5b505050506040513d601f19601f8201168201806040525081019061023491906109ca565b9050801561024657600191505061024c565b60009150505b949350505050565b60028054610261906109ec565b80601f016020809104026020016040519081016040528092919081815260200182805461028d906109ec565b80156102da5780601f106102af576101008083540402835291602001916102da565b820191906000526020600020905b8154815290600101906020018083116102bd57829003601f168201915b505050505081565b6004805481906102f1906109ec565b80601f016020809104026020016040519081016040528092919081815260200182805461031d906109ec565b801561036a5780601f1061033f5761010080835404028352916020019161036a565b820191906000526020600020905b81548152906001019060200180831161034d57829003601f168201915b50505050509080600101805461037f906109ec565b80601f01602080910402602001604051908101604052809291908181526020018280546103ab906109ec565b80156103f85780601f106103cd576101008083540402835291602001916103f8565b820191906000526020600020905b8154815290600101906020018083116103db57829003601f168201915b50505050509080600201805461040d906109ec565b80601f0160208091040260200160405190810160405280929190818152602001828054610439906109ec565b80156104865780601f1061045b57610100808354040283529160200191610486565b820191906000526020600020905b81548152906001019060200180831161046957829003601f168201915b5050505050905083565b60608060606000600460000180546104a7906109ec565b80601f01602080910402602001604051908101604052809291908181526020018280546104d3906109ec565b80156105205780601f106104f557610100808354040283529160200191610520565b820191906000526020600020905b81548152906001019060200180831161050357829003601f168201915b5050505050905060006105308290565b9050600060046001018054610544906109ec565b80601f0160208091040260200160405190810160405280929190818152602001828054610570906109ec565b80156105bd5780601f10610592576101008083540402835291602001916105bd565b820191906000526020600020905b8154815290600101906020018083116105a057829003601f168201915b5050505050905060006105cd8290565b90506000600460020180546105e1906109ec565b80601f016020809104026020016040519081016040528092919081815260200182805461060d906109ec565b801561065a5780601f1061062f5761010080835404028352916020019161065a565b820191906000526020600020905b81548152906001019060200180831161063d57829003601f168201915b50505050509050600061066a8290565b949992985093965090945050505050565b60606002805461068a906109ec565b80601f01602080910402602001604051908101604052809291908181526020018280546106b6906109ec565b80156107035780601f106106d857610100808354040283529160200191610703565b820191906000526020600020905b8154815290600101906020018083116106e657829003601f168201915b5050505050905090565b60038054610261906109ec565b60606003805461068a906109ec565b3360009081526007602052604090205460ff16610772576040517f15cc961f00000000000000000000000000000000000000000000000000000000815260040160405180910390fd5b33600090815260076020526040902080547fffffffffffffffffffffffffffffffffffffffffffffffffffffffffffffff00169055565b600080600080604085870312156107bf57600080fd5b843567ffffffffffffffff808211156107d757600080fd5b818701915087601f8301126107eb57600080fd5b8135818111156107fa57600080fd5b88602082850101111561080c57600080fd5b60209283019650945090860135908082111561082757600080fd5b818701915087601f83011261083b57600080fd5b81358181111561084a57600080fd5b8860208260051b850101111561085f57600080fd5b95989497505060200194505050565b6000815180845260005b8181101561089457602081850181015186830182015201610878565b5060006020828601015260207fffffffffffffffffffffffffffffffffffffffffffffffffffffffffffffffe0601f83011685010191505092915050565b6020815260006108e5602083018461086e565b9392505050565b6060815260006108ff606083018661086e565b8281036020840152610911818661086e565b90508281036040840152610925818561086e565b9695505050505050565b604081528360408201528385606083013760006060858301015260007fffffffffffffffffffffffffffffffffffffffffffffffffffffffffffffffe0601f860116820160608382030160208401528360608201527f07ffffffffffffffffffffffffffffffffffffffffffffffffffffffffffffff8411156109b157600080fd5b8360051b80866080840137016080019695505050505050565b6000602082840312156109dc57600080fd5b815180151581146108e557600080fd5b600181811c90821680610a0057607f821691505b602082108103610a39577f4e487b7100000000000000000000000000000000000000000000000000000000600052602260045260246000fd5b5091905056fea264697066735822122003c1ebb8bbc02d7fb4f1bc89a9e5f9c777ca4c1b7a5a321e1e0715b3e913438e64736f6c63430008120033a26469706673582212207ec1e28f76f8e370f5bc4b29fd643765925d98d4ed3d2a679d7af09bef2f031864736f6c63430008120033",
  "linkReferences": {},
  "deployedLinkReferences": {}
}