{
  "_format": "hh-sol-artifact-1",
  "contractName": "Factory",
  "sourceName": "contracts/Factory.sol",
  "address": "0x5AC38FA215df773b456c4bE7775e655eD113fe5D",
  "abi": [
    {
      "inputs": [
        {
          "internalType": "address",
          "name": "_verifier",
          "type": "address"
        }
      ],
      "stateMutability": "nonpayable",
      "type": "constructor"
    },
    {
      "inputs": [
        {
          "internalType": "address",
          "name": "",
          "type": "address"
        }
      ],
      "name": "addressToCommunityDetails",
      "outputs": [
        {
          "internalType": "string",
          "name": "communityName",
          "type": "string"
        },
        {
          "internalType": "string",
          "name": "communityDescription",
          "type": "string"
        },
        {
          "internalType": "string",
          "name": "domainPub",
          "type": "string"
        },
        {
          "internalType": "string",
          "name": "regionPub",
          "type": "string"
        },
        {
          "internalType": "string",
          "name": "genderPub",
          "type": "string"
        }
      ],
      "stateMutability": "view",
      "type": "function"
    },
    {
      "inputs": [
        {
          "internalType": "address",
          "name": "",
          "type": "address"
        }
      ],
      "name": "addressToPollDetails",
      "outputs": [
        {
          "internalType": "string",
          "name": "mongoPollId",
          "type": "string"
        },
        {
          "internalType": "string",
          "name": "domainPub",
          "type": "string"
        },
        {
          "internalType": "string",
          "name": "regionPub",
          "type": "string"
        },
        {
          "internalType": "string",
          "name": "genderPub",
          "type": "string"
        }
      ],
      "stateMutability": "view",
      "type": "function"
    },
    {
      "inputs": [
        {
          "internalType": "uint256",
          "name": "",
          "type": "uint256"
        }
      ],
      "name": "communityDetails",
      "outputs": [
        {
          "internalType": "string",
          "name": "communityName",
          "type": "string"
        },
        {
          "internalType": "string",
          "name": "communityDescription",
          "type": "string"
        },
        {
          "internalType": "string",
          "name": "domainPub",
          "type": "string"
        },
        {
          "internalType": "string",
          "name": "regionPub",
          "type": "string"
        },
        {
          "internalType": "string",
          "name": "genderPub",
          "type": "string"
        }
      ],
      "stateMutability": "view",
      "type": "function"
    },
    {
      "inputs": [
        {
          "internalType": "string",
          "name": "_domainPub",
          "type": "string"
        },
        {
          "internalType": "string",
          "name": "_regionPub",
          "type": "string"
        },
        {
          "internalType": "string",
          "name": "_genderPub",
          "type": "string"
        },
        {
          "internalType": "string",
          "name": "_communityName",
          "type": "string"
        },
        {
          "internalType": "string",
          "name": "_communityDescription",
          "type": "string"
        }
      ],
      "name": "createCommunity",
      "outputs": [],
      "stateMutability": "nonpayable",
      "type": "function"
    },
    {
      "inputs": [
        {
          "internalType": "string",
          "name": "_domainPub",
          "type": "string"
        },
        {
          "internalType": "string",
          "name": "_regionPub",
          "type": "string"
        },
        {
          "internalType": "string",
          "name": "_genderPub",
          "type": "string"
        },
        {
          "internalType": "string",
          "name": "_mongoId",
          "type": "string"
        }
      ],
      "name": "createPoll",
      "outputs": [],
      "stateMutability": "nonpayable",
      "type": "function"
    },
    {
      "inputs": [],
      "name": "getAllCommunities",
      "outputs": [
        {
          "internalType": "address[]",
          "name": "",
          "type": "address[]"
        }
      ],
      "stateMutability": "view",
      "type": "function"
    },
    {
      "inputs": [],
      "name": "getAllPolls",
      "outputs": [
        {
          "internalType": "address[]",
          "name": "",
          "type": "address[]"
        }
      ],
      "stateMutability": "view",
      "type": "function"
    },
    {
      "inputs": [
        {
          "internalType": "uint256",
          "name": "_id",
          "type": "uint256"
        }
      ],
      "name": "getCommunity",
      "outputs": [
        {
          "internalType": "address",
          "name": "",
          "type": "address"
        }
      ],
      "stateMutability": "view",
      "type": "function"
    },
    {
      "inputs": [
        {
          "internalType": "address",
          "name": "_communityAddress",
          "type": "address"
        }
      ],
      "name": "getCommunityDetails",
      "outputs": [
        {
          "components": [
            {
              "internalType": "string",
              "name": "communityName",
              "type": "string"
            },
            {
              "internalType": "string",
              "name": "communityDescription",
              "type": "string"
            },
            {
              "internalType": "string",
              "name": "domainPub",
              "type": "string"
            },
            {
              "internalType": "string",
              "name": "regionPub",
              "type": "string"
            },
            {
              "internalType": "string",
              "name": "genderPub",
              "type": "string"
            }
          ],
          "internalType": "struct Factory.CommunityDetails",
          "name": "",
          "type": "tuple"
        }
      ],
      "stateMutability": "view",
      "type": "function"
    },
    {
      "inputs": [
        {
          "internalType": "string",
          "name": "_mongoId",
          "type": "string"
        }
      ],
      "name": "getIdFromMongoId",
      "outputs": [
        {
          "internalType": "uint256",
          "name": "",
          "type": "uint256"
        }
      ],
      "stateMutability": "view",
      "type": "function"
    },
    {
      "inputs": [
        {
          "internalType": "uint256",
          "name": "_id",
          "type": "uint256"
        }
      ],
      "name": "getPoll",
      "outputs": [
        {
          "internalType": "address",
          "name": "",
          "type": "address"
        }
      ],
      "stateMutability": "view",
      "type": "function"
    },
    {
      "inputs": [
        {
          "internalType": "address",
          "name": "_pollAddress",
          "type": "address"
        }
      ],
      "name": "getPollDetails",
      "outputs": [
        {
          "components": [
            {
              "internalType": "string",
              "name": "mongoPollId",
              "type": "string"
            },
            {
              "internalType": "string",
              "name": "domainPub",
              "type": "string"
            },
            {
              "internalType": "string",
              "name": "regionPub",
              "type": "string"
            },
            {
              "internalType": "string",
              "name": "genderPub",
              "type": "string"
            }
          ],
          "internalType": "struct Factory.PollDetails",
          "name": "",
          "type": "tuple"
        }
      ],
      "stateMutability": "view",
      "type": "function"
    },
    {
      "inputs": [
        {
          "internalType": "string",
          "name": "_mongoId",
          "type": "string"
        }
      ],
      "name": "getPollIdFromMongoId",
      "outputs": [
        {
          "internalType": "uint256",
          "name": "",
          "type": "uint256"
        }
      ],
      "stateMutability": "view",
      "type": "function"
    },
    {
      "inputs": [
        {
          "internalType": "uint256",
          "name": "",
          "type": "uint256"
        }
      ],
      "name": "idToCommunity",
      "outputs": [
        {
          "internalType": "address",
          "name": "",
          "type": "address"
        }
      ],
      "stateMutability": "view",
      "type": "function"
    },
    {
      "inputs": [
        {
          "internalType": "uint256",
          "name": "",
          "type": "uint256"
        }
      ],
      "name": "idToPoll",
      "outputs": [
        {
          "internalType": "address",
          "name": "",
          "type": "address"
        }
      ],
      "stateMutability": "view",
      "type": "function"
    },
    {
      "inputs": [
        {
          "internalType": "uint256",
          "name": "",
          "type": "uint256"
        }
      ],
      "name": "pollDetails",
      "outputs": [
        {
          "internalType": "string",
          "name": "mongoPollId",
          "type": "string"
        },
        {
          "internalType": "string",
          "name": "domainPub",
          "type": "string"
        },
        {
          "internalType": "string",
          "name": "regionPub",
          "type": "string"
        },
        {
          "internalType": "string",
          "name": "genderPub",
          "type": "string"
        }
      ],
      "stateMutability": "view",
      "type": "function"
    }
  ],
  "bytecode": "0x608060405234801561001057600080fd5b5060405162003bcc38038062003bcc8339810160408190526100319161005e565b600280546001600160a01b0319166001600160a01b0392909216919091179055600080805560015561008e565b60006020828403121561007057600080fd5b81516001600160a01b038116811461008757600080fd5b9392505050565b613b2e806200009e6000396000f3fe60806040523480156200001157600080fd5b5060043610620001155760003560e01c80637832333c11620000a3578063c16cd64c116200006e578063c16cd64c14620002d7578063c617f41a1462000301578063e5b561141462000318578063f8e7c39f146200035157600080fd5b80637832333c146200026a57806395dd0ed0146200029057806396cf1543146200029a578063b5737c1014620002b157600080fd5b806332b633fa11620000e457806332b633fa14620001ea578063370603f814620002035780633bf09728146200023c5780636d5b622f146200025357600080fd5b8063052ba5d2146200011a57806313f84f5d146200014c5780631a8cbcaa14620001655780632ed002fc14620001c4575b600080fd5b620001316200012b36600462001405565b6200038a565b60405162000143949392919062001498565b60405180910390f35b620001636200015d366004620015bc565b620005f2565b005b6200019e620001763660046200169e565b60009081526008602052604090205473ffffffffffffffffffffffffffffffffffffffff1690565b60405173ffffffffffffffffffffffffffffffffffffffff909116815260200162000143565b620001db620001d536600462001405565b620007c9565b604051620001439190620016b8565b620001f462000a93565b6040516200014391906200173e565b6200019e620002143660046200169e565b60009081526007602052604090205473ffffffffffffffffffffffffffffffffffffffff1690565b620001316200024d3660046200169e565b62000b04565b62000163620002643660046200179a565b62000b3a565b620002816200027b36600462001854565b62000d13565b60405190815260200162000143565b620001f462000d3d565b62000281620002ab36600462001895565b62000dac565b620002c8620002c236600462001405565b62000dd9565b6040516200014391906200190c565b620002ee620002e836600462001405565b620010b5565b60405162000143959493929190620019a8565b620002ee620003123660046200169e565b620013b3565b6200019e620003293660046200169e565b60086020526000908152604090205473ffffffffffffffffffffffffffffffffffffffff1681565b6200019e620003623660046200169e565b60076020526000908152604090205473ffffffffffffffffffffffffffffffffffffffff1681565b600a60205260009081526040902080548190620003a79062001a1f565b80601f0160208091040260200160405190810160405280929190818152602001828054620003d59062001a1f565b8015620004265780601f10620003fa5761010080835404028352916020019162000426565b820191906000526020600020905b8154815290600101906020018083116200040857829003601f168201915b5050505050908060010180546200043d9062001a1f565b80601f01602080910402602001604051908101604052809291908181526020018280546200046b9062001a1f565b8015620004bc5780601f106200049057610100808354040283529160200191620004bc565b820191906000526020600020905b8154815290600101906020018083116200049e57829003601f168201915b505050505090806002018054620004d39062001a1f565b80601f0160208091040260200160405190810160405280929190818152602001828054620005019062001a1f565b8015620005525780601f10620005265761010080835404028352916020019162000552565b820191906000526020600020905b8154815290600101906020018083116200053457829003601f168201915b505050505090806003018054620005699062001a1f565b80601f0160208091040260200160405190810160405280929190818152602001828054620005979062001a1f565b8015620005e85780601f10620005bc57610100808354040283529160200191620005e8565b820191906000526020600020905b815481529060010190602001808311620005ca57829003601f168201915b5050505050905084565b6000805490506000868686600260009054906101000a900473ffffffffffffffffffffffffffffffffffffffff168588886040516200063190620013e9565b62000643979695949392919062001a74565b604051809103906000f08015801562000660573d6000803e3d6000fd5b506040805160a08101825286815260208082018790528183018b9052606082018a90526080820189905273ffffffffffffffffffffffffffffffffffffffff84166000908152600990915291909120815192935090918190620006c4908262001b62565b5060208201516001820190620006db908262001b62565b5060408201516002820190620006f2908262001b62565b506060820151600382019062000709908262001b62565b506080820151600482019062000720908262001b62565b5050506000828152600760205260408120805473ffffffffffffffffffffffffffffffffffffffff84167fffffffffffffffffffffffff00000000000000000000000000000000000000009182168117909255600380546001810182559084527fc2575a0e9e593c00f959f8c92f12db2869c3395a3b0502d05e2516446f71f85b018054909116909117905580549080620007bb8362001c2f565b919050555050505050505050565b620007f56040518060800160405280606081526020016060815260200160608152602001606081525090565b73ffffffffffffffffffffffffffffffffffffffff82166000908152600a602052604090819020815160808101909252805482908290620008369062001a1f565b80601f0160208091040260200160405190810160405280929190818152602001828054620008649062001a1f565b8015620008b55780601f106200088957610100808354040283529160200191620008b5565b820191906000526020600020905b8154815290600101906020018083116200089757829003601f168201915b50505050508152602001600182018054620008d09062001a1f565b80601f0160208091040260200160405190810160405280929190818152602001828054620008fe9062001a1f565b80156200094f5780601f1062000923576101008083540402835291602001916200094f565b820191906000526020600020905b8154815290600101906020018083116200093157829003601f168201915b505050505081526020016002820180546200096a9062001a1f565b80601f0160208091040260200160405190810160405280929190818152602001828054620009989062001a1f565b8015620009e95780601f10620009bd57610100808354040283529160200191620009e9565b820191906000526020600020905b815481529060010190602001808311620009cb57829003601f168201915b5050505050815260200160038201805462000a049062001a1f565b80601f016020809104026020016040519081016040528092919081815260200182805462000a329062001a1f565b801562000a835780601f1062000a575761010080835404028352916020019162000a83565b820191906000526020600020905b81548152906001019060200180831162000a6557829003601f168201915b5050505050815250509050919050565b6060600480548060200260200160405190810160405280929190818152602001828054801562000afa57602002820191906000526020600020905b815473ffffffffffffffffffffffffffffffffffffffff16815260019091019060200180831162000ace575b5050505050905090565b6006818154811062000b1557600080fd5b9060005260206000209060040201600091509050806000018054620003a79062001a1f565b60015460025460405160009187918791879173ffffffffffffffffffffffffffffffffffffffff909116908690889062000b7490620013f7565b62000b859695949392919062001c71565b604051809103906000f08015801562000ba2573d6000803e3d6000fd5b506040805160808101825285815260208082018a90528183018990526060820188905273ffffffffffffffffffffffffffffffffffffffff84166000908152600a9091529190912081519293509091819062000bff908262001b62565b506020820151600182019062000c16908262001b62565b506040820151600282019062000c2d908262001b62565b506060820151600382019062000c44908262001b62565b505050600082815260086020526040808220805473ffffffffffffffffffffffffffffffffffffffff85167fffffffffffffffffffffffff000000000000000000000000000000000000000091821681179092556004805460018101825594527f8a35acfbc15ff81a39ae7d344fd709f28e8600b4aa8c65c6b64bfe7fe36bd19b909301805490931617909155518290600b9062000ce490869062001cf5565b908152604051908190036020019020556001805490600062000d068362001c2f565b9190505550505050505050565b6000600b8260405162000d27919062001cf5565b9081526020016040518091039020549050919050565b6060600380548060200260200160405190810160405280929190818152602001828054801562000afa5760200282019190600052602060002090815473ffffffffffffffffffffffffffffffffffffffff16815260019091019060200180831162000ace575050505050905090565b6000600b838360405162000dc292919062001d13565b908152602001604051809103902054905092915050565b62000e0c6040518060a0016040528060608152602001606081526020016060815260200160608152602001606081525090565b73ffffffffffffffffffffffffffffffffffffffff821660009081526009602052604090819020815160a0810190925280548290829062000e4d9062001a1f565b80601f016020809104026020016040519081016040528092919081815260200182805462000e7b9062001a1f565b801562000ecc5780601f1062000ea05761010080835404028352916020019162000ecc565b820191906000526020600020905b81548152906001019060200180831162000eae57829003601f168201915b5050505050815260200160018201805462000ee79062001a1f565b80601f016020809104026020016040519081016040528092919081815260200182805462000f159062001a1f565b801562000f665780601f1062000f3a5761010080835404028352916020019162000f66565b820191906000526020600020905b81548152906001019060200180831162000f4857829003601f168201915b5050505050815260200160028201805462000f819062001a1f565b80601f016020809104026020016040519081016040528092919081815260200182805462000faf9062001a1f565b8015620010005780601f1062000fd45761010080835404028352916020019162001000565b820191906000526020600020905b81548152906001019060200180831162000fe257829003601f168201915b505050505081526020016003820180546200101b9062001a1f565b80601f0160208091040260200160405190810160405280929190818152602001828054620010499062001a1f565b80156200109a5780601f106200106e576101008083540402835291602001916200109a565b820191906000526020600020905b8154815290600101906020018083116200107c57829003601f168201915b5050505050815260200160048201805462000a049062001a1f565b600960205260009081526040902080548190620010d29062001a1f565b80601f0160208091040260200160405190810160405280929190818152602001828054620011009062001a1f565b8015620011515780601f10620011255761010080835404028352916020019162001151565b820191906000526020600020905b8154815290600101906020018083116200113357829003601f168201915b505050505090806001018054620011689062001a1f565b80601f0160208091040260200160405190810160405280929190818152602001828054620011969062001a1f565b8015620011e75780601f10620011bb57610100808354040283529160200191620011e7565b820191906000526020600020905b815481529060010190602001808311620011c957829003601f168201915b505050505090806002018054620011fe9062001a1f565b80601f01602080910402602001604051908101604052809291908181526020018280546200122c9062001a1f565b80156200127d5780601f1062001251576101008083540402835291602001916200127d565b820191906000526020600020905b8154815290600101906020018083116200125f57829003601f168201915b505050505090806003018054620012949062001a1f565b80601f0160208091040260200160405190810160405280929190818152602001828054620012c29062001a1f565b8015620013135780601f10620012e75761010080835404028352916020019162001313565b820191906000526020600020905b815481529060010190602001808311620012f557829003601f168201915b5050505050908060040180546200132a9062001a1f565b80601f0160208091040260200160405190810160405280929190818152602001828054620013589062001a1f565b8015620013a95780601f106200137d57610100808354040283529160200191620013a9565b820191906000526020600020905b8154815290600101906020018083116200138b57829003601f168201915b5050505050905085565b60058181548110620013c457600080fd5b9060005260206000209060050201600091509050806000018054620010d29062001a1f565b610e8d8062001d2483390190565b610f488062002bb183390190565b6000602082840312156200141857600080fd5b813573ffffffffffffffffffffffffffffffffffffffff811681146200143d57600080fd5b9392505050565b60005b838110156200146157818101518382015260200162001447565b50506000910152565b600081518084526200148481602086016020860162001444565b601f01601f19169290920160200192915050565b608081526000620014ad60808301876200146a565b8281036020840152620014c181876200146a565b90508281036040840152620014d781866200146a565b90508281036060840152620014ed81856200146a565b979650505050505050565b7f4e487b7100000000000000000000000000000000000000000000000000000000600052604160045260246000fd5b600082601f8301126200153957600080fd5b813567ffffffffffffffff80821115620015575762001557620014f8565b604051601f8301601f19908116603f01168101908282118183101715620015825762001582620014f8565b816040528381528660208588010111156200159c57600080fd5b836020870160208301376000602085830101528094505050505092915050565b600080600080600060a08688031215620015d557600080fd5b853567ffffffffffffffff80821115620015ee57600080fd5b620015fc89838a0162001527565b965060208801359150808211156200161357600080fd5b6200162189838a0162001527565b955060408801359150808211156200163857600080fd5b6200164689838a0162001527565b945060608801359150808211156200165d57600080fd5b6200166b89838a0162001527565b935060808801359150808211156200168257600080fd5b50620016918882890162001527565b9150509295509295909350565b600060208284031215620016b157600080fd5b5035919050565b602081526000825160806020840152620016d660a08401826200146a565b90506020840151601f1980858403016040860152620016f683836200146a565b925060408601519150808584030160608601526200171583836200146a565b92506060860151915080858403016080860152506200173582826200146a565b95945050505050565b6020808252825182820181905260009190848201906040850190845b818110156200178e57835173ffffffffffffffffffffffffffffffffffffffff16835292840192918401916001016200175a565b50909695505050505050565b60008060008060808587031215620017b157600080fd5b843567ffffffffffffffff80821115620017ca57600080fd5b620017d88883890162001527565b95506020870135915080821115620017ef57600080fd5b620017fd8883890162001527565b945060408701359150808211156200181457600080fd5b620018228883890162001527565b935060608701359150808211156200183957600080fd5b50620018488782880162001527565b91505092959194509250565b6000602082840312156200186757600080fd5b813567ffffffffffffffff8111156200187f57600080fd5b6200188d8482850162001527565b949350505050565b60008060208385031215620018a957600080fd5b823567ffffffffffffffff80821115620018c257600080fd5b818501915085601f830112620018d757600080fd5b813581811115620018e757600080fd5b866020828501011115620018fa57600080fd5b60209290920196919550909350505050565b602081526000825160a060208401526200192a60c08401826200146a565b90506020840151601f19808584030160408601526200194a83836200146a565b925060408601519150808584030160608601526200196983836200146a565b925060608601519150808584030160808601526200198883836200146a565b925060808601519150808584030160a0860152506200173582826200146a565b60a081526000620019bd60a08301886200146a565b8281036020840152620019d181886200146a565b90508281036040840152620019e781876200146a565b90508281036060840152620019fd81866200146a565b9050828103608084015262001a1381856200146a565b98975050505050505050565b600181811c9082168062001a3457607f821691505b60208210810362001a6e577f4e487b7100000000000000000000000000000000000000000000000000000000600052602260045260246000fd5b50919050565b60e08152600062001a8960e083018a6200146a565b828103602084015262001a9d818a6200146a565b9050828103604084015262001ab381896200146a565b905073ffffffffffffffffffffffffffffffffffffffff8716606084015285608084015282810360a084015262001aeb81866200146a565b905082810360c084015262001b0181856200146a565b9a9950505050505050505050565b601f82111562001b5d57600081815260208120601f850160051c8101602086101562001b385750805b601f850160051c820191505b8181101562001b595782815560010162001b44565b5050505b505050565b815167ffffffffffffffff81111562001b7f5762001b7f620014f8565b62001b978162001b90845462001a1f565b8462001b0f565b602080601f83116001811462001bcf576000841562001bb65750858301515b600019600386901b1c1916600185901b17855562001b59565b600085815260208120601f198616915b8281101562001c005788860151825594840194600190910190840162001bdf565b508582101562001c1f5787850151600019600388901b60f8161c191681555b5050505050600190811b01905550565b6000600019820362001c6a577f4e487b7100000000000000000000000000000000000000000000000000000000600052601160045260246000fd5b5060010190565b60c08152600062001c8660c08301896200146a565b828103602084015262001c9a81896200146a565b9050828103604084015262001cb081886200146a565b905073ffffffffffffffffffffffffffffffffffffffff8616606084015284608084015282810360a084015262001ce881856200146a565b9998505050505050505050565b6000825162001d0981846020870162001444565b9190910192915050565b818382376000910190815291905056fe60806040523480156200001157600080fd5b5060405162000e8d38038062000e8d83398101604081905262000034916200018e565b600080546001600160a01b0319166001600160a01b03861617905560046200005d88826200031a565b5060056200006c87826200031a565b5060066200007b86826200031a565b50600183905560026200008f83826200031a565b5060036200009e82826200031a565b5050505050505050620003e6565b634e487b7160e01b600052604160045260246000fd5b600082601f830112620000d457600080fd5b81516001600160401b0380821115620000f157620000f1620000ac565b604051601f8301601f19908116603f011681019082821181831017156200011c576200011c620000ac565b816040528381526020925086838588010111156200013957600080fd5b600091505b838210156200015d57858201830151818301840152908201906200013e565b600093810190920192909252949350505050565b80516001600160a01b03811681146200018957600080fd5b919050565b600080600080600080600060e0888a031215620001aa57600080fd5b87516001600160401b0380821115620001c257600080fd5b620001d08b838c01620000c2565b985060208a0151915080821115620001e757600080fd5b620001f58b838c01620000c2565b975060408a01519150808211156200020c57600080fd5b6200021a8b838c01620000c2565b96506200022a60608b0162000171565b955060808a0151945060a08a01519150808211156200024857600080fd5b620002568b838c01620000c2565b935060c08a01519150808211156200026d57600080fd5b506200027c8a828b01620000c2565b91505092959891949750929550565b600181811c90821680620002a057607f821691505b602082108103620002c157634e487b7160e01b600052602260045260246000fd5b50919050565b601f8211156200031557600081815260208120601f850160051c81016020861015620002f05750805b601f850160051c820191505b818110156200031157828155600101620002fc565b5050505b505050565b81516001600160401b03811115620003365762000336620000ac565b6200034e816200034784546200028b565b84620002c7565b602080601f8311600181146200038657600084156200036d5750858301515b600019600386901b1c1916600185901b17855562000311565b600085815260208120601f198616915b82811015620003b75788860151825594840194600190910190840162000396565b5085821015620003d65787850151600019600388901b60f8161c191681555b5050505050600190811b01905550565b610a9780620003f66000396000f3fe608060405234801561001057600080fd5b50600436106100c95760003560e01c806376cc589911610081578063c6d572ae1161005b578063c6d572ae14610190578063ce59654a14610198578063d02982cf146101a057600080fd5b806376cc5899146101345780637f50861a146101715780639360ceff1461018857600080fd5b80633283f192116100b25780633283f1921461010b57806345e2984a146101135780635e1648431461012a57600080fd5b8063152c84db146100ce578063327fcee5146100f6575b600080fd5b6100e16100dc3660046107cb565b6101b8565b60405190151581526020015b60405180910390f35b6100fe610276565b6040516100ed91906108f4565b6100fe610308565b61011b610317565b6040516100ed9392919061090e565b610132610502565b005b61013233600090815260076020526040902080547fffffffffffffffffffffffffffffffffffffffffffffffffffffffffffffff00166001179055565b61017a60015481565b6040519081526020016100ed565b6100fe610582565b6100fe610610565b61011b61061d565b3360009081526007602052604090205460ff166100e1565b600080546040517fea50d0e4000000000000000000000000000000000000000000000000000000008152829173ffffffffffffffffffffffffffffffffffffffff169063ea50d0e490610215908990899089908990600401610951565b602060405180830381865afa158015610232573d6000803e3d6000fd5b505050506040513d601f19601f8201168201806040525081019061025691906109ec565b9050801561026857600191505061026e565b60009150505b949350505050565b60606002805461028590610a0e565b80601f01602080910402602001604051908101604052809291908181526020018280546102b190610a0e565b80156102fe5780601f106102d3576101008083540402835291602001916102fe565b820191906000526020600020905b8154815290600101906020018083116102e157829003601f168201915b5050505050905090565b60606003805461028590610a0e565b606080606060006004600001805461032e90610a0e565b80601f016020809104026020016040519081016040528092919081815260200182805461035a90610a0e565b80156103a75780601f1061037c576101008083540402835291602001916103a7565b820191906000526020600020905b81548152906001019060200180831161038a57829003601f168201915b5050505050905060006103b78290565b90506000600460010180546103cb90610a0e565b80601f01602080910402602001604051908101604052809291908181526020018280546103f790610a0e565b80156104445780601f1061041957610100808354040283529160200191610444565b820191906000526020600020905b81548152906001019060200180831161042757829003601f168201915b5050505050905060006104548290565b905060006004600201805461046890610a0e565b80601f016020809104026020016040519081016040528092919081815260200182805461049490610a0e565b80156104e15780601f106104b6576101008083540402835291602001916104e1565b820191906000526020600020905b8154815290600101906020018083116104c457829003601f168201915b5050505050905060006104f18290565b949992985093965090945050505050565b3360009081526007602052604090205460ff1661054b576040517f15cc961f00000000000000000000000000000000000000000000000000000000815260040160405180910390fd5b33600090815260076020526040902080547fffffffffffffffffffffffffffffffffffffffffffffffffffffffffffffff00169055565b6003805461058f90610a0e565b80601f01602080910402602001604051908101604052809291908181526020018280546105bb90610a0e565b80156106085780601f106105dd57610100808354040283529160200191610608565b820191906000526020600020905b8154815290600101906020018083116105eb57829003601f168201915b505050505081565b6002805461058f90610a0e565b60048054819061062c90610a0e565b80601f016020809104026020016040519081016040528092919081815260200182805461065890610a0e565b80156106a55780601f1061067a576101008083540402835291602001916106a5565b820191906000526020600020905b81548152906001019060200180831161068857829003601f168201915b5050505050908060010180546106ba90610a0e565b80601f01602080910402602001604051908101604052809291908181526020018280546106e690610a0e565b80156107335780601f1061070857610100808354040283529160200191610733565b820191906000526020600020905b81548152906001019060200180831161071657829003601f168201915b50505050509080600201805461074890610a0e565b80601f016020809104026020016040519081016040528092919081815260200182805461077490610a0e565b80156107c15780601f10610796576101008083540402835291602001916107c1565b820191906000526020600020905b8154815290600101906020018083116107a457829003601f168201915b5050505050905083565b600080600080604085870312156107e157600080fd5b843567ffffffffffffffff808211156107f957600080fd5b818701915087601f83011261080d57600080fd5b81358181111561081c57600080fd5b88602082850101111561082e57600080fd5b60209283019650945090860135908082111561084957600080fd5b818701915087601f83011261085d57600080fd5b81358181111561086c57600080fd5b8860208260051b850101111561088157600080fd5b95989497505060200194505050565b6000815180845260005b818110156108b65760208185018101518683018201520161089a565b5060006020828601015260207fffffffffffffffffffffffffffffffffffffffffffffffffffffffffffffffe0601f83011685010191505092915050565b6020815260006109076020830184610890565b9392505050565b6060815260006109216060830186610890565b82810360208401526109338186610890565b905082810360408401526109478185610890565b9695505050505050565b604081528360408201528385606083013760006060858301015260007fffffffffffffffffffffffffffffffffffffffffffffffffffffffffffffffe0601f860116820160608382030160208401528360608201527f07ffffffffffffffffffffffffffffffffffffffffffffffffffffffffffffff8411156109d357600080fd5b8360051b80866080840137016080019695505050505050565b6000602082840312156109fe57600080fd5b8151801515811461090757600080fd5b600181811c90821680610a2257607f821691505b602082108103610a5b577f4e487b7100000000000000000000000000000000000000000000000000000000600052602260045260246000fd5b5091905056fea2646970667358221220e85b777dec171b9fa66c9efadfdea9441111bac97bc057fb5b2155bef97628b464736f6c6343000812003360806040523480156200001157600080fd5b5060405162000f4838038062000f4883398101604081905262000034916200017c565b600080546001600160a01b0319166001600160a01b03851617905560056200005d8782620002df565b5060066200006c8682620002df565b5060076200007b8582620002df565b5060046200008a8282620002df565b505060015550620003ab92505050565b634e487b7160e01b600052604160045260246000fd5b600082601f830112620000c257600080fd5b81516001600160401b0380821115620000df57620000df6200009a565b604051601f8301601f19908116603f011681019082821181831017156200010a576200010a6200009a565b816040528381526020925086838588010111156200012757600080fd5b600091505b838210156200014b57858201830151818301840152908201906200012c565b600093810190920192909252949350505050565b80516001600160a01b03811681146200017757600080fd5b919050565b60008060008060008060c087890312156200019657600080fd5b86516001600160401b0380821115620001ae57600080fd5b620001bc8a838b01620000b0565b97506020890151915080821115620001d357600080fd5b620001e18a838b01620000b0565b96506040890151915080821115620001f857600080fd5b620002068a838b01620000b0565b95506200021660608a016200015f565b94506080890151935060a08901519150808211156200023457600080fd5b506200024389828a01620000b0565b9150509295509295509295565b600181811c908216806200026557607f821691505b6020821081036200028657634e487b7160e01b600052602260045260246000fd5b50919050565b601f821115620002da57600081815260208120601f850160051c81016020861015620002b55750805b601f850160051c820191505b81811015620002d657828155600101620002c1565b5050505b505050565b81516001600160401b03811115620002fb57620002fb6200009a565b62000313816200030c845462000250565b846200028c565b602080601f8311600181146200034b5760008415620003325750858301515b600019600386901b1c1916600185901b178555620002d6565b600085815260208120601f198616915b828110156200037c578886015182559484019460019091019084016200035b565b50858210156200039b5787850151600019600388901b60f8161c191681555b5050505050600190811b01905550565b610b8d80620003bb6000396000f3fe608060405234801561001057600080fd5b50600436106100c95760003560e01c806363b6dcda11610081578063a311a7c01161005b578063a311a7c0146101a0578063bfe00a42146101a8578063d02982cf146101b057600080fd5b806363b6dcda146101795780636f13ab00146101815780639930a73c1461019857600080fd5b80633674067f116100b25780633674067f1461010b57806344bdc9271461012357806345e2984a1461016257600080fd5b806317f32053146100ce57806318769765146100f6575b600080fd5b6100e16100dc366004610869565b6101c8565b60405190151581526020015b60405180910390f35b6100fe610286565b6040516100ed9190610992565b610113610314565b6040516100ed94939291906109ac565b61016033600090815260086020526040902080547fffffffffffffffffffffffffffffffffffffffffffffffffffffffffffffff00166001179055565b005b61016a610550565b6040516100ed93929190610a04565b6100fe61073b565b61018a60015481565b6040519081526020016100ed565b6100fe6107cd565b6100fe6107da565b6101606107e9565b3360009081526008602052604090205460ff166100e1565b600080546040517fea50d0e4000000000000000000000000000000000000000000000000000000008152829173ffffffffffffffffffffffffffffffffffffffff169063ea50d0e490610225908990899089908990600401610a47565b602060405180830381865afa158015610242573d6000803e3d6000fd5b505050506040513d601f19601f820116820180604052508101906102669190610ae2565b9050801561027857600191505061027e565b60009150505b949350505050565b6002805461029390610b04565b80601f01602080910402602001604051908101604052809291908181526020018280546102bf90610b04565b801561030c5780601f106102e15761010080835404028352916020019161030c565b820191906000526020600020905b8154815290600101906020018083116102ef57829003601f168201915b505050505081565b60048054819061032390610b04565b80601f016020809104026020016040519081016040528092919081815260200182805461034f90610b04565b801561039c5780601f106103715761010080835404028352916020019161039c565b820191906000526020600020905b81548152906001019060200180831161037f57829003601f168201915b5050505050908060010180546103b190610b04565b80601f01602080910402602001604051908101604052809291908181526020018280546103dd90610b04565b801561042a5780601f106103ff5761010080835404028352916020019161042a565b820191906000526020600020905b81548152906001019060200180831161040d57829003601f168201915b50505050509080600201805461043f90610b04565b80601f016020809104026020016040519081016040528092919081815260200182805461046b90610b04565b80156104b85780601f1061048d576101008083540402835291602001916104b8565b820191906000526020600020905b81548152906001019060200180831161049b57829003601f168201915b5050505050908060030180546104cd90610b04565b80601f01602080910402602001604051908101604052809291908181526020018280546104f990610b04565b80156105465780601f1061051b57610100808354040283529160200191610546565b820191906000526020600020905b81548152906001019060200180831161052957829003601f168201915b5050505050905084565b606080606060006004600101805461056790610b04565b80601f016020809104026020016040519081016040528092919081815260200182805461059390610b04565b80156105e05780601f106105b5576101008083540402835291602001916105e0565b820191906000526020600020905b8154815290600101906020018083116105c357829003601f168201915b5050505050905060006105f08290565b905060006004600201805461060490610b04565b80601f016020809104026020016040519081016040528092919081815260200182805461063090610b04565b801561067d5780601f106106525761010080835404028352916020019161067d565b820191906000526020600020905b81548152906001019060200180831161066057829003601f168201915b50505050509050600061068d8290565b90506000600460030180546106a190610b04565b80601f01602080910402602001604051908101604052809291908181526020018280546106cd90610b04565b801561071a5780601f106106ef5761010080835404028352916020019161071a565b820191906000526020600020905b8154815290600101906020018083116106fd57829003601f168201915b50505050509050600061072a8290565b949992985093965090945050505050565b60606002805461074a90610b04565b80601f016020809104026020016040519081016040528092919081815260200182805461077690610b04565b80156107c35780601f10610798576101008083540402835291602001916107c3565b820191906000526020600020905b8154815290600101906020018083116107a657829003601f168201915b5050505050905090565b6003805461029390610b04565b60606003805461074a90610b04565b3360009081526008602052604090205460ff16610832576040517f15cc961f00000000000000000000000000000000000000000000000000000000815260040160405180910390fd5b33600090815260086020526040902080547fffffffffffffffffffffffffffffffffffffffffffffffffffffffffffffff00169055565b6000806000806040858703121561087f57600080fd5b843567ffffffffffffffff8082111561089757600080fd5b818701915087601f8301126108ab57600080fd5b8135818111156108ba57600080fd5b8860208285010111156108cc57600080fd5b6020928301965094509086013590808211156108e757600080fd5b818701915087601f8301126108fb57600080fd5b81358181111561090a57600080fd5b8860208260051b850101111561091f57600080fd5b95989497505060200194505050565b6000815180845260005b8181101561095457602081850181015186830182015201610938565b5060006020828601015260207fffffffffffffffffffffffffffffffffffffffffffffffffffffffffffffffe0601f83011685010191505092915050565b6020815260006109a5602083018461092e565b9392505050565b6080815260006109bf608083018761092e565b82810360208401526109d1818761092e565b905082810360408401526109e5818661092e565b905082810360608401526109f9818561092e565b979650505050505050565b606081526000610a17606083018661092e565b8281036020840152610a29818661092e565b90508281036040840152610a3d818561092e565b9695505050505050565b604081528360408201528385606083013760006060858301015260007fffffffffffffffffffffffffffffffffffffffffffffffffffffffffffffffe0601f860116820160608382030160208401528360608201527f07ffffffffffffffffffffffffffffffffffffffffffffffffffffffffffffff841115610ac957600080fd5b8360051b80866080840137016080019695505050505050565b600060208284031215610af457600080fd5b815180151581146109a557600080fd5b600181811c90821680610b1857607f821691505b602082108103610b51577f4e487b7100000000000000000000000000000000000000000000000000000000600052602260045260246000fd5b5091905056fea264697066735822122023890a672aaf34a4ff08cb99bdfb7f3ef3d1f6bae124d69340e3d7da77a5537264736f6c63430008120033a26469706673582212200796fb18d0569911990b3fc84b797fdbd879fd00394f28a0259f2be3685a7ef264736f6c63430008120033",
  "linkReferences": {},
  "deployedLinkReferences": {}
}