{
  "_format": "hh-sol-artifact-1",
  "contractName": "ZKCommunity",
  "sourceName": "contracts/Community/Community.sol",
  "abi": [
    {
      "inputs": [
        {
          "internalType": "string",
          "name": "_domainPub",
          "type": "string"
        },
        {
          "internalType": "string",
          "name": "_regionPub",
          "type": "string"
        },
        {
          "internalType": "string",
          "name": "_genderPub",
          "type": "string"
        },
        {
          "internalType": "address",
          "name": "_verifier",
          "type": "address"
        },
        {
          "internalType": "uint256",
          "name": "_communityId",
          "type": "uint256"
        }
      ],
      "stateMutability": "nonpayable",
      "type": "constructor"
    },
    {
      "inputs": [],
      "name": "communityRules",
      "outputs": [
        {
          "internalType": "string",
          "name": "domainPub",
          "type": "string"
        },
        {
          "internalType": "string",
          "name": "regionPub",
          "type": "string"
        },
        {
          "internalType": "string",
          "name": "genderPub",
          "type": "string"
        }
      ],
      "stateMutability": "view",
      "type": "function"
    },
    {
      "inputs": [],
      "name": "getRules",
      "outputs": [
        {
          "components": [
            {
              "internalType": "string",
              "name": "domainPub",
              "type": "string"
            },
            {
              "internalType": "string",
              "name": "regionPub",
              "type": "string"
            },
            {
              "internalType": "string",
              "name": "genderPub",
              "type": "string"
            }
          ],
          "internalType": "struct ZKCommunity.CommmunityRules",
          "name": "",
          "type": "tuple"
        }
      ],
      "stateMutability": "view",
      "type": "function"
    },
    {
      "inputs": [],
      "name": "isMember",
      "outputs": [
        {
          "internalType": "bool",
          "name": "",
          "type": "bool"
        }
      ],
      "stateMutability": "view",
      "type": "function"
    },
    {
      "inputs": [
        {
          "internalType": "bytes",
          "name": "_proof",
          "type": "bytes"
        },
        {
          "internalType": "bytes32[]",
          "name": "_publicInputs",
          "type": "bytes32[]"
        }
      ],
      "name": "joinCommunity",
      "outputs": [
        {
          "internalType": "bool",
          "name": "",
          "type": "bool"
        }
      ],
      "stateMutability": "view",
      "type": "function"
    },
    {
      "inputs": [],
      "name": "leaveCommunity",
      "outputs": [],
      "stateMutability": "nonpayable",
      "type": "function"
    }
  ],
  "bytecode": "0x60806040523480156200001157600080fd5b5060405162000c1838038062000c1883398101604081905262000034916200014f565b600080546001600160a01b0319166001600160a01b03841617905560026200005d86826200029d565b5060036200006c85826200029d565b5060046200007b84826200029d565b50600155506200036992505050565b634e487b7160e01b600052604160045260246000fd5b600082601f830112620000b257600080fd5b81516001600160401b0380821115620000cf57620000cf6200008a565b604051601f8301601f19908116603f01168101908282118183101715620000fa57620000fa6200008a565b816040528381526020925086838588010111156200011757600080fd5b600091505b838210156200013b57858201830151818301840152908201906200011c565b600093810190920192909252949350505050565b600080600080600060a086880312156200016857600080fd5b85516001600160401b03808211156200018057600080fd5b6200018e89838a01620000a0565b96506020880151915080821115620001a557600080fd5b620001b389838a01620000a0565b95506040880151915080821115620001ca57600080fd5b50620001d988828901620000a0565b606088015190945090506001600160a01b0381168114620001f957600080fd5b80925050608086015190509295509295909350565b600181811c908216806200022357607f821691505b6020821081036200024457634e487b7160e01b600052602260045260246000fd5b50919050565b601f8211156200029857600081815260208120601f850160051c81016020861015620002735750805b601f850160051c820191505b8181101562000294578281556001016200027f565b5050505b505050565b81516001600160401b03811115620002b957620002b96200008a565b620002d181620002ca84546200020e565b846200024a565b602080601f831160018114620003095760008415620002f05750858301515b600019600386901b1c1916600185901b17855562000294565b600085815260208120601f198616915b828110156200033a5788860151825594840194600190910190840162000319565b5085821015620003595787850151600019600388901b60f8161c191681555b5050505050600190811b01905550565b61089f80620003796000396000f3fe608060405234801561001057600080fd5b50600436106100675760003560e01c80635e164843116100505780635e164843146100a9578063ce59654a146100e5578063d02982cf146100fc57600080fd5b8063152c84db1461006c57806345e2984a14610094575b600080fd5b61007f61007a3660046105c1565b610114565b60405190151581526020015b60405180910390f35b61009c610227565b60405161008b91906106cc565b6100e333600090815260056020526040902080547fffffffffffffffffffffffffffffffffffffffffffffffffffffffffffffff00169055565b005b6100ed610413565b60405161008b9392919061072d565b3360009081526005602052604090205460ff1661007f565b600080546040517fea50d0e400000000000000000000000000000000000000000000000000000000815273ffffffffffffffffffffffffffffffffffffffff9091169063ea50d0e490610171908890889088908890600401610770565b602060405180830381865afa15801561018e573d6000803e3d6000fd5b505050506040513d601f19601f820116820180604052508101906101b291906107ed565b61021c576040517f08c379a000000000000000000000000000000000000000000000000000000000815260206004820152600d60248201527f496e76616c69642070726f6f6600000000000000000000000000000000000000604482015260640160405180910390fd5b506001949350505050565b61024b60405180606001604052806060815260200160608152602001606081525090565b600260405180606001604052908160008201805461026890610816565b80601f016020809104026020016040519081016040528092919081815260200182805461029490610816565b80156102e15780601f106102b6576101008083540402835291602001916102e1565b820191906000526020600020905b8154815290600101906020018083116102c457829003601f168201915b505050505081526020016001820180546102fa90610816565b80601f016020809104026020016040519081016040528092919081815260200182805461032690610816565b80156103735780601f1061034857610100808354040283529160200191610373565b820191906000526020600020905b81548152906001019060200180831161035657829003601f168201915b5050505050815260200160028201805461038c90610816565b80601f01602080910402602001604051908101604052809291908181526020018280546103b890610816565b80156104055780601f106103da57610100808354040283529160200191610405565b820191906000526020600020905b8154815290600101906020018083116103e857829003601f168201915b505050505081525050905090565b60028054819061042290610816565b80601f016020809104026020016040519081016040528092919081815260200182805461044e90610816565b801561049b5780601f106104705761010080835404028352916020019161049b565b820191906000526020600020905b81548152906001019060200180831161047e57829003601f168201915b5050505050908060010180546104b090610816565b80601f01602080910402602001604051908101604052809291908181526020018280546104dc90610816565b80156105295780601f106104fe57610100808354040283529160200191610529565b820191906000526020600020905b81548152906001019060200180831161050c57829003601f168201915b50505050509080600201805461053e90610816565b80601f016020809104026020016040519081016040528092919081815260200182805461056a90610816565b80156105b75780601f1061058c576101008083540402835291602001916105b7565b820191906000526020600020905b81548152906001019060200180831161059a57829003601f168201915b5050505050905083565b600080600080604085870312156105d757600080fd5b843567ffffffffffffffff808211156105ef57600080fd5b818701915087601f83011261060357600080fd5b81358181111561061257600080fd5b88602082850101111561062457600080fd5b60209283019650945090860135908082111561063f57600080fd5b818701915087601f83011261065357600080fd5b81358181111561066257600080fd5b8860208260051b850101111561067757600080fd5b95989497505060200194505050565b6000815180845260005b818110156106ac57602081850181015186830182015201610690565b506000602082860101526020601f19601f83011685010191505092915050565b6020815260008251606060208401526106e86080840182610686565b90506020840151601f19808584030160408601526107068383610686565b92506040860151915080858403016060860152506107248282610686565b95945050505050565b6060815260006107406060830186610686565b82810360208401526107528186610686565b905082810360408401526107668185610686565b9695505050505050565b60408152836040820152838560608301376000606085830101526000601f19601f860116820160608382030160208401528360608201527f07ffffffffffffffffffffffffffffffffffffffffffffffffffffffffffffff8411156107d457600080fd5b8360051b80866080840137016080019695505050505050565b6000602082840312156107ff57600080fd5b8151801515811461080f57600080fd5b9392505050565b600181811c9082168061082a57607f821691505b602082108103610863577f4e487b7100000000000000000000000000000000000000000000000000000000600052602260045260246000fd5b5091905056fea26469706673582212203fea978062470e8b0ba8e78435186e3eacbf5757403581cb1f6fb46c50ea881464736f6c63430008120033",
  "linkReferences": {},
  "deployedLinkReferences": {}
}