{
  "_format": "hh-sol-artifact-1",
  "contractName": "ZKCommunity",
  "sourceName": "contracts/Community/Community.sol",
  "abi": [
    {
      "inputs": [
        {
          "internalType": "string",
          "name": "_domainPub",
          "type": "string"
        },
        {
          "internalType": "string",
          "name": "_regionPub",
          "type": "string"
        },
        {
          "internalType": "string",
          "name": "_genderPub",
          "type": "string"
        },
        {
          "internalType": "address",
          "name": "_verifier",
          "type": "address"
        },
        {
          "internalType": "uint256",
          "name": "_communityId",
          "type": "uint256"
        },
        {
          "internalType": "string",
          "name": "_communityName",
          "type": "string"
        },
        {
          "internalType": "string",
          "name": "_communityDescription",
          "type": "string"
        }
      ],
      "stateMutability": "nonpayable",
      "type": "constructor"
    },
    {
      "inputs": [],
      "name": "NOT_A_MEMBER",
      "type": "error"
    },
    {
      "inputs": [],
      "name": "communityDescription",
      "outputs": [
        {
          "internalType": "string",
          "name": "",
          "type": "string"
        }
      ],
      "stateMutability": "view",
      "type": "function"
    },
    {
      "inputs": [],
      "name": "communityName",
      "outputs": [
        {
          "internalType": "string",
          "name": "",
          "type": "string"
        }
      ],
      "stateMutability": "view",
      "type": "function"
    },
    {
      "inputs": [],
      "name": "communityRules",
      "outputs": [
        {
          "internalType": "string",
          "name": "domainPub",
          "type": "string"
        },
        {
          "internalType": "string",
          "name": "regionPub",
          "type": "string"
        },
        {
          "internalType": "string",
          "name": "genderPub",
          "type": "string"
        }
      ],
      "stateMutability": "view",
      "type": "function"
    },
    {
      "inputs": [],
      "name": "getCommunityDescription",
      "outputs": [
        {
          "internalType": "string",
          "name": "",
          "type": "string"
        }
      ],
      "stateMutability": "view",
      "type": "function"
    },
    {
      "inputs": [],
      "name": "getCommunityName",
      "outputs": [
        {
          "internalType": "string",
          "name": "",
          "type": "string"
        }
      ],
      "stateMutability": "view",
      "type": "function"
    },
    {
      "inputs": [],
      "name": "getRules",
      "outputs": [
        {
          "internalType": "bytes",
          "name": "",
          "type": "bytes"
        },
        {
          "internalType": "bytes",
          "name": "",
          "type": "bytes"
        },
        {
          "internalType": "bytes",
          "name": "",
          "type": "bytes"
        }
      ],
      "stateMutability": "view",
      "type": "function"
    },
    {
      "inputs": [],
      "name": "isMember",
      "outputs": [
        {
          "internalType": "bool",
          "name": "",
          "type": "bool"
        }
      ],
      "stateMutability": "view",
      "type": "function"
    },
    {
      "inputs": [
        {
          "internalType": "bytes",
          "name": "_proof",
          "type": "bytes"
        },
        {
          "internalType": "bytes32[]",
          "name": "_publicInputs",
          "type": "bytes32[]"
        }
      ],
      "name": "joinCommunity",
      "outputs": [
        {
          "internalType": "bool",
          "name": "",
          "type": "bool"
        }
      ],
      "stateMutability": "view",
      "type": "function"
    },
    {
      "inputs": [],
      "name": "leaveCommunity",
      "outputs": [],
      "stateMutability": "nonpayable",
      "type": "function"
    },
    {
      "inputs": [],
      "name": "setIsInCommunity",
      "outputs": [],
      "stateMutability": "nonpayable",
      "type": "function"
    }
  ],
  "bytecode": "0x60806040523480156200001157600080fd5b5060405162000e6b38038062000e6b83398101604081905262000034916200018e565b600080546001600160a01b0319166001600160a01b03861617905560046200005d88826200031a565b5060056200006c87826200031a565b5060066200007b86826200031a565b50600183905560026200008f83826200031a565b5060036200009e82826200031a565b5050505050505050620003e6565b634e487b7160e01b600052604160045260246000fd5b600082601f830112620000d457600080fd5b81516001600160401b0380821115620000f157620000f1620000ac565b604051601f8301601f19908116603f011681019082821181831017156200011c576200011c620000ac565b816040528381526020925086838588010111156200013957600080fd5b600091505b838210156200015d57858201830151818301840152908201906200013e565b600093810190920192909252949350505050565b80516001600160a01b03811681146200018957600080fd5b919050565b600080600080600080600060e0888a031215620001aa57600080fd5b87516001600160401b0380821115620001c257600080fd5b620001d08b838c01620000c2565b985060208a0151915080821115620001e757600080fd5b620001f58b838c01620000c2565b975060408a01519150808211156200020c57600080fd5b6200021a8b838c01620000c2565b96506200022a60608b0162000171565b955060808a0151945060a08a01519150808211156200024857600080fd5b620002568b838c01620000c2565b935060c08a01519150808211156200026d57600080fd5b506200027c8a828b01620000c2565b91505092959891949750929550565b600181811c90821680620002a057607f821691505b602082108103620002c157634e487b7160e01b600052602260045260246000fd5b50919050565b601f8211156200031557600081815260208120601f850160051c81016020861015620002f05750805b601f850160051c820191505b818110156200031157828155600101620002fc565b5050505b505050565b81516001600160401b03811115620003365762000336620000ac565b6200034e816200034784546200028b565b84620002c7565b602080601f8311600181146200038657600084156200036d5750858301515b600019600386901b1c1916600185901b17855562000311565b600085815260208120601f198616915b82811015620003b75788860151825594840194600190910190840162000396565b5085821015620003d65787850151600019600388901b60f8161c191681555b5050505050600190811b01905550565b610a7580620003f66000396000f3fe608060405234801561001057600080fd5b50600436106100be5760003560e01c806376cc589911610076578063c6d572ae1161005b578063c6d572ae1461016e578063ce59654a14610176578063d02982cf1461017e57600080fd5b806376cc5899146101295780639360ceff1461016657600080fd5b80633283f192116100a75780633283f1921461010057806345e2984a146101085780635e1648431461011f57600080fd5b8063152c84db146100c3578063327fcee5146100eb575b600080fd5b6100d66100d13660046107a9565b610196565b60405190151581526020015b60405180910390f35b6100f3610254565b6040516100e291906108d2565b6100f36102e6565b6101106102f5565b6040516100e2939291906108ec565b6101276104e0565b005b61012733600090815260076020526040902080547fffffffffffffffffffffffffffffffffffffffffffffffffffffffffffffff00166001179055565b6100f3610560565b6100f36105ee565b6101106105fb565b3360009081526007602052604090205460ff166100d6565b600080546040517fea50d0e4000000000000000000000000000000000000000000000000000000008152829173ffffffffffffffffffffffffffffffffffffffff169063ea50d0e4906101f390899089908990899060040161092f565b602060405180830381865afa158015610210573d6000803e3d6000fd5b505050506040513d601f19601f8201168201806040525081019061023491906109ca565b9050801561024657600191505061024c565b60009150505b949350505050565b606060028054610263906109ec565b80601f016020809104026020016040519081016040528092919081815260200182805461028f906109ec565b80156102dc5780601f106102b1576101008083540402835291602001916102dc565b820191906000526020600020905b8154815290600101906020018083116102bf57829003601f168201915b5050505050905090565b606060038054610263906109ec565b606080606060006004600001805461030c906109ec565b80601f0160208091040260200160405190810160405280929190818152602001828054610338906109ec565b80156103855780601f1061035a57610100808354040283529160200191610385565b820191906000526020600020905b81548152906001019060200180831161036857829003601f168201915b5050505050905060006103958290565b90506000600460010180546103a9906109ec565b80601f01602080910402602001604051908101604052809291908181526020018280546103d5906109ec565b80156104225780601f106103f757610100808354040283529160200191610422565b820191906000526020600020905b81548152906001019060200180831161040557829003601f168201915b5050505050905060006104328290565b9050600060046002018054610446906109ec565b80601f0160208091040260200160405190810160405280929190818152602001828054610472906109ec565b80156104bf5780601f10610494576101008083540402835291602001916104bf565b820191906000526020600020905b8154815290600101906020018083116104a257829003601f168201915b5050505050905060006104cf8290565b949992985093965090945050505050565b3360009081526007602052604090205460ff16610529576040517f15cc961f00000000000000000000000000000000000000000000000000000000815260040160405180910390fd5b33600090815260076020526040902080547fffffffffffffffffffffffffffffffffffffffffffffffffffffffffffffff00169055565b6003805461056d906109ec565b80601f0160208091040260200160405190810160405280929190818152602001828054610599906109ec565b80156105e65780601f106105bb576101008083540402835291602001916105e6565b820191906000526020600020905b8154815290600101906020018083116105c957829003601f168201915b505050505081565b6002805461056d906109ec565b60048054819061060a906109ec565b80601f0160208091040260200160405190810160405280929190818152602001828054610636906109ec565b80156106835780601f1061065857610100808354040283529160200191610683565b820191906000526020600020905b81548152906001019060200180831161066657829003601f168201915b505050505090806001018054610698906109ec565b80601f01602080910402602001604051908101604052809291908181526020018280546106c4906109ec565b80156107115780601f106106e657610100808354040283529160200191610711565b820191906000526020600020905b8154815290600101906020018083116106f457829003601f168201915b505050505090806002018054610726906109ec565b80601f0160208091040260200160405190810160405280929190818152602001828054610752906109ec565b801561079f5780601f106107745761010080835404028352916020019161079f565b820191906000526020600020905b81548152906001019060200180831161078257829003601f168201915b5050505050905083565b600080600080604085870312156107bf57600080fd5b843567ffffffffffffffff808211156107d757600080fd5b818701915087601f8301126107eb57600080fd5b8135818111156107fa57600080fd5b88602082850101111561080c57600080fd5b60209283019650945090860135908082111561082757600080fd5b818701915087601f83011261083b57600080fd5b81358181111561084a57600080fd5b8860208260051b850101111561085f57600080fd5b95989497505060200194505050565b6000815180845260005b8181101561089457602081850181015186830182015201610878565b5060006020828601015260207fffffffffffffffffffffffffffffffffffffffffffffffffffffffffffffffe0601f83011685010191505092915050565b6020815260006108e5602083018461086e565b9392505050565b6060815260006108ff606083018661086e565b8281036020840152610911818661086e565b90508281036040840152610925818561086e565b9695505050505050565b604081528360408201528385606083013760006060858301015260007fffffffffffffffffffffffffffffffffffffffffffffffffffffffffffffffe0601f860116820160608382030160208401528360608201527f07ffffffffffffffffffffffffffffffffffffffffffffffffffffffffffffff8411156109b157600080fd5b8360051b80866080840137016080019695505050505050565b6000602082840312156109dc57600080fd5b815180151581146108e557600080fd5b600181811c90821680610a0057607f821691505b602082108103610a39577f4e487b7100000000000000000000000000000000000000000000000000000000600052602260045260246000fd5b5091905056fea2646970667358221220a0e072bcd1dcd9b043d83ff7b05da197e83827c780d69be9ed6b77e0c83bf1d164736f6c63430008120033",
  "linkReferences": {},
  "deployedLinkReferences": {}
}