{
  "_format": "hh-sol-artifact-1",
  "contractName": "Factory",
  "sourceName": "contracts/Factory.sol",
  "address": "0xE57c79F5Ac23fe5eF74B4Ff76fCB83b9B5B5d0dc",
  "abi": [
    {
      "inputs": [
        {
          "internalType": "address",
          "name": "_verifier",
          "type": "address"
        }
      ],
      "stateMutability": "nonpayable",
      "type": "constructor"
    },
    {
      "anonymous": false,
      "inputs": [
        {
          "indexed": true,
          "internalType": "uint256",
          "name": "_id",
          "type": "uint256"
        },
        {
          "indexed": true,
          "internalType": "address",
          "name": "_communityAddress",
          "type": "address"
        },
        {
          "indexed": false,
          "internalType": "string",
          "name": "_communityName",
          "type": "string"
        },
        {
          "indexed": false,
          "internalType": "string",
          "name": "_communityDescription",
          "type": "string"
        }
      ],
      "name": "CommunityCreatedEvent",
      "type": "event"
    },
    {
      "inputs": [
        {
          "internalType": "address",
          "name": "",
          "type": "address"
        }
      ],
      "name": "addressToCommunityDetails",
      "outputs": [
        {
          "internalType": "string",
          "name": "communityName",
          "type": "string"
        },
        {
          "internalType": "string",
          "name": "communityDescription",
          "type": "string"
        },
        {
          "internalType": "string",
          "name": "domainPub",
          "type": "string"
        },
        {
          "internalType": "string",
          "name": "regionPub",
          "type": "string"
        },
        {
          "internalType": "string",
          "name": "genderPub",
          "type": "string"
        }
      ],
      "stateMutability": "view",
      "type": "function"
    },
    {
      "inputs": [
        {
          "internalType": "address",
          "name": "",
          "type": "address"
        }
      ],
      "name": "addressToPollDetails",
      "outputs": [
        {
          "internalType": "string",
          "name": "mongoPollId",
          "type": "string"
        },
        {
          "internalType": "string",
          "name": "domainPub",
          "type": "string"
        },
        {
          "internalType": "string",
          "name": "regionPub",
          "type": "string"
        },
        {
          "internalType": "string",
          "name": "genderPub",
          "type": "string"
        }
      ],
      "stateMutability": "view",
      "type": "function"
    },
    {
      "inputs": [
        {
          "internalType": "uint256",
          "name": "",
          "type": "uint256"
        }
      ],
      "name": "communityDetails",
      "outputs": [
        {
          "internalType": "string",
          "name": "communityName",
          "type": "string"
        },
        {
          "internalType": "string",
          "name": "communityDescription",
          "type": "string"
        },
        {
          "internalType": "string",
          "name": "domainPub",
          "type": "string"
        },
        {
          "internalType": "string",
          "name": "regionPub",
          "type": "string"
        },
        {
          "internalType": "string",
          "name": "genderPub",
          "type": "string"
        }
      ],
      "stateMutability": "view",
      "type": "function"
    },
    {
      "inputs": [
        {
          "internalType": "string",
          "name": "_domainPub",
          "type": "string"
        },
        {
          "internalType": "string",
          "name": "_regionPub",
          "type": "string"
        },
        {
          "internalType": "string",
          "name": "_genderPub",
          "type": "string"
        },
        {
          "internalType": "string",
          "name": "_communityName",
          "type": "string"
        },
        {
          "internalType": "string",
          "name": "_communityDescription",
          "type": "string"
        }
      ],
      "name": "createCommunity",
      "outputs": [
        {
          "internalType": "uint256",
          "name": "",
          "type": "uint256"
        }
      ],
      "stateMutability": "nonpayable",
      "type": "function"
    },
    {
      "inputs": [
        {
          "internalType": "string",
          "name": "_domainPub",
          "type": "string"
        },
        {
          "internalType": "string",
          "name": "_regionPub",
          "type": "string"
        },
        {
          "internalType": "string",
          "name": "_genderPub",
          "type": "string"
        },
        {
          "internalType": "string",
          "name": "_mongoId",
          "type": "string"
        }
      ],
      "name": "createPoll",
      "outputs": [],
      "stateMutability": "nonpayable",
      "type": "function"
    },
    {
      "inputs": [],
      "name": "getAllCommunities",
      "outputs": [
        {
          "internalType": "address[]",
          "name": "",
          "type": "address[]"
        }
      ],
      "stateMutability": "view",
      "type": "function"
    },
    {
      "inputs": [],
      "name": "getAllPolls",
      "outputs": [
        {
          "internalType": "address[]",
          "name": "",
          "type": "address[]"
        }
      ],
      "stateMutability": "view",
      "type": "function"
    },
    {
      "inputs": [
        {
          "internalType": "uint256",
          "name": "_id",
          "type": "uint256"
        }
      ],
      "name": "getCommunity",
      "outputs": [
        {
          "internalType": "address",
          "name": "",
          "type": "address"
        }
      ],
      "stateMutability": "view",
      "type": "function"
    },
    {
      "inputs": [
        {
          "internalType": "address",
          "name": "_communityAddress",
          "type": "address"
        }
      ],
      "name": "getCommunityDetails",
      "outputs": [
        {
          "components": [
            {
              "internalType": "string",
              "name": "communityName",
              "type": "string"
            },
            {
              "internalType": "string",
              "name": "communityDescription",
              "type": "string"
            },
            {
              "internalType": "string",
              "name": "domainPub",
              "type": "string"
            },
            {
              "internalType": "string",
              "name": "regionPub",
              "type": "string"
            },
            {
              "internalType": "string",
              "name": "genderPub",
              "type": "string"
            }
          ],
          "internalType": "struct Factory.CommunityDetails",
          "name": "",
          "type": "tuple"
        }
      ],
      "stateMutability": "view",
      "type": "function"
    },
    {
      "inputs": [
        {
          "internalType": "string",
          "name": "_mongoId",
          "type": "string"
        }
      ],
      "name": "getIdFromMongoId",
      "outputs": [
        {
          "internalType": "uint256",
          "name": "",
          "type": "uint256"
        }
      ],
      "stateMutability": "view",
      "type": "function"
    },
    {
      "inputs": [],
      "name": "getLastCommunityAddress",
      "outputs": [
        {
          "internalType": "address",
          "name": "",
          "type": "address"
        }
      ],
      "stateMutability": "view",
      "type": "function"
    },
    {
      "inputs": [
        {
          "internalType": "uint256",
          "name": "_id",
          "type": "uint256"
        }
      ],
      "name": "getPoll",
      "outputs": [
        {
          "internalType": "address",
          "name": "",
          "type": "address"
        }
      ],
      "stateMutability": "view",
      "type": "function"
    },
    {
      "inputs": [
        {
          "internalType": "address",
          "name": "_pollAddress",
          "type": "address"
        }
      ],
      "name": "getPollDetails",
      "outputs": [
        {
          "components": [
            {
              "internalType": "string",
              "name": "mongoPollId",
              "type": "string"
            },
            {
              "internalType": "string",
              "name": "domainPub",
              "type": "string"
            },
            {
              "internalType": "string",
              "name": "regionPub",
              "type": "string"
            },
            {
              "internalType": "string",
              "name": "genderPub",
              "type": "string"
            }
          ],
          "internalType": "struct Factory.PollDetails",
          "name": "",
          "type": "tuple"
        }
      ],
      "stateMutability": "view",
      "type": "function"
    },
    {
      "inputs": [
        {
          "internalType": "string",
          "name": "_mongoId",
          "type": "string"
        }
      ],
      "name": "getPollIdFromMongoId",
      "outputs": [
        {
          "internalType": "uint256",
          "name": "",
          "type": "uint256"
        }
      ],
      "stateMutability": "view",
      "type": "function"
    },
    {
      "inputs": [
        {
          "internalType": "uint256",
          "name": "",
          "type": "uint256"
        }
      ],
      "name": "idToCommunity",
      "outputs": [
        {
          "internalType": "address",
          "name": "",
          "type": "address"
        }
      ],
      "stateMutability": "view",
      "type": "function"
    },
    {
      "inputs": [
        {
          "internalType": "uint256",
          "name": "",
          "type": "uint256"
        }
      ],
      "name": "idToPoll",
      "outputs": [
        {
          "internalType": "address",
          "name": "",
          "type": "address"
        }
      ],
      "stateMutability": "view",
      "type": "function"
    },
    {
      "inputs": [
        {
          "internalType": "uint256",
          "name": "",
          "type": "uint256"
        }
      ],
      "name": "pollDetails",
      "outputs": [
        {
          "internalType": "string",
          "name": "mongoPollId",
          "type": "string"
        },
        {
          "internalType": "string",
          "name": "domainPub",
          "type": "string"
        },
        {
          "internalType": "string",
          "name": "regionPub",
          "type": "string"
        },
        {
          "internalType": "string",
          "name": "genderPub",
          "type": "string"
        }
      ],
      "stateMutability": "view",
      "type": "function"
    }
  ],
  "bytecode": "0x608060405234801561001057600080fd5b5060405162003d2138038062003d218339810160408190526100319161005e565b600280546001600160a01b0319166001600160a01b0392909216919091179055600080805560015561008e565b60006020828403121561007057600080fd5b81516001600160a01b038116811461008757600080fd5b9392505050565b613c83806200009e6000396000f3fe60806040523480156200001157600080fd5b5060043610620001325760003560e01c80637832333c11620000c0578063c16cd64c116200008b578063e5b56114116200006e578063e5b561141462000335578063f4c3453f146200036e578063f8e7c39f146200037857600080fd5b8063c16cd64c14620002f4578063c617f41a146200031e57600080fd5b80637832333c146200029657806395dd0ed014620002ad57806396cf154314620002b7578063b5737c1014620002ce57600080fd5b806332b633fa116200010157806332b633fa1462000214578063370603f8146200022d5780633bf0972814620002665780636d5b622f146200027d57600080fd5b8063052ba5d2146200013757806313f84f5d14620001695780631a8cbcaa146200018f5780632ed002fc14620001ee575b600080fd5b6200014e62000148366004620014d3565b620003b1565b60405162000160949392919062001566565b60405180910390f35b620001806200017a3660046200168a565b62000619565b60405190815260200162000160565b620001c8620001a03660046200176c565b60009081526008602052604090205473ffffffffffffffffffffffffffffffffffffffff1690565b60405173ffffffffffffffffffffffffffffffffffffffff909116815260200162000160565b62000205620001ff366004620014d3565b62000847565b60405162000160919062001786565b6200021e62000b11565b6040516200016091906200180c565b620001c86200023e3660046200176c565b60009081526007602052604090205473ffffffffffffffffffffffffffffffffffffffff1690565b6200014e620002773660046200176c565b62000b82565b620002946200028e36600462001868565b62000bb8565b005b62000180620002a736600462001922565b62000d91565b6200021e62000dbb565b62000180620002c836600462001963565b62000e2a565b620002e5620002df366004620014d3565b62000e58565b604051620001609190620019da565b6200030b62000305366004620014d3565b62001134565b6040516200016095949392919062001a76565b6200030b6200032f3660046200176c565b62001432565b620001c8620003463660046200176c565b60086020526000908152604090205473ffffffffffffffffffffffffffffffffffffffff1681565b620001c862001468565b620001c8620003893660046200176c565b60076020526000908152604090205473ffffffffffffffffffffffffffffffffffffffff1681565b600a60205260009081526040902080548190620003ce9062001aed565b80601f0160208091040260200160405190810160405280929190818152602001828054620003fc9062001aed565b80156200044d5780601f1062000421576101008083540402835291602001916200044d565b820191906000526020600020905b8154815290600101906020018083116200042f57829003601f168201915b505050505090806001018054620004649062001aed565b80601f0160208091040260200160405190810160405280929190818152602001828054620004929062001aed565b8015620004e35780601f10620004b757610100808354040283529160200191620004e3565b820191906000526020600020905b815481529060010190602001808311620004c557829003601f168201915b505050505090806002018054620004fa9062001aed565b80601f0160208091040260200160405190810160405280929190818152602001828054620005289062001aed565b8015620005795780601f106200054d5761010080835404028352916020019162000579565b820191906000526020600020905b8154815290600101906020018083116200055b57829003601f168201915b505050505090806003018054620005909062001aed565b80601f0160208091040260200160405190810160405280929190818152602001828054620005be9062001aed565b80156200060f5780601f10620005e3576101008083540402835291602001916200060f565b820191906000526020600020905b815481529060010190602001808311620005f157829003601f168201915b5050505050905084565b60008060005490506000878787600260009054906101000a900473ffffffffffffffffffffffffffffffffffffffff168589896040516200065a90620014b7565b6200066c979695949392919062001b42565b604051809103906000f08015801562000689573d6000803e3d6000fd5b506040805160a08101825287815260208082018890528183018c9052606082018b9052608082018a905273ffffffffffffffffffffffffffffffffffffffff84166000908152600990915291909120815192935090918190620006ed908262001c30565b506020820151600182019062000704908262001c30565b50604082015160028201906200071b908262001c30565b506060820151600382019062000732908262001c30565b506080820151600482019062000749908262001c30565b5050506000828152600760205260408120805473ffffffffffffffffffffffffffffffffffffffff84167fffffffffffffffffffffffff00000000000000000000000000000000000000009182168117909255600380546001810182559084527fc2575a0e9e593c00f959f8c92f12db2869c3395a3b0502d05e2516446f71f85b018054909116909117905580549080620007e48362001d2c565b91905055508073ffffffffffffffffffffffffffffffffffffffff16827f6c2a0b3ad3451af211f511a2d7648bfb8551ff39f6daf751232429ba72a5c54c87876040516200083492919062001d49565b60405180910390a3509695505050505050565b620008736040518060800160405280606081526020016060815260200160608152602001606081525090565b73ffffffffffffffffffffffffffffffffffffffff82166000908152600a602052604090819020815160808101909252805482908290620008b49062001aed565b80601f0160208091040260200160405190810160405280929190818152602001828054620008e29062001aed565b8015620009335780601f10620009075761010080835404028352916020019162000933565b820191906000526020600020905b8154815290600101906020018083116200091557829003601f168201915b505050505081526020016001820180546200094e9062001aed565b80601f01602080910402602001604051908101604052809291908181526020018280546200097c9062001aed565b8015620009cd5780601f10620009a157610100808354040283529160200191620009cd565b820191906000526020600020905b815481529060010190602001808311620009af57829003601f168201915b50505050508152602001600282018054620009e89062001aed565b80601f016020809104026020016040519081016040528092919081815260200182805462000a169062001aed565b801562000a675780601f1062000a3b5761010080835404028352916020019162000a67565b820191906000526020600020905b81548152906001019060200180831162000a4957829003601f168201915b5050505050815260200160038201805462000a829062001aed565b80601f016020809104026020016040519081016040528092919081815260200182805462000ab09062001aed565b801562000b015780601f1062000ad55761010080835404028352916020019162000b01565b820191906000526020600020905b81548152906001019060200180831162000ae357829003601f168201915b5050505050815250509050919050565b6060600480548060200260200160405190810160405280929190818152602001828054801562000b7857602002820191906000526020600020905b815473ffffffffffffffffffffffffffffffffffffffff16815260019091019060200180831162000b4c575b5050505050905090565b6006818154811062000b9357600080fd5b9060005260206000209060040201600091509050806000018054620003ce9062001aed565b60015460025460405160009187918791879173ffffffffffffffffffffffffffffffffffffffff909116908690889062000bf290620014c5565b62000c039695949392919062001d72565b604051809103906000f08015801562000c20573d6000803e3d6000fd5b506040805160808101825285815260208082018a90528183018990526060820188905273ffffffffffffffffffffffffffffffffffffffff84166000908152600a9091529190912081519293509091819062000c7d908262001c30565b506020820151600182019062000c94908262001c30565b506040820151600282019062000cab908262001c30565b506060820151600382019062000cc2908262001c30565b505050600082815260086020526040808220805473ffffffffffffffffffffffffffffffffffffffff85167fffffffffffffffffffffffff000000000000000000000000000000000000000091821681179092556004805460018101825594527f8a35acfbc15ff81a39ae7d344fd709f28e8600b4aa8c65c6b64bfe7fe36bd19b909301805490931617909155518290600b9062000d6290869062001df6565b908152604051908190036020019020556001805490600062000d848362001d2c565b9190505550505050505050565b6000600b8260405162000da5919062001df6565b9081526020016040518091039020549050919050565b6060600380548060200260200160405190810160405280929190818152602001828054801562000b785760200282019190600052602060002090815473ffffffffffffffffffffffffffffffffffffffff16815260019091019060200180831162000b4c575050505050905090565b6000600b838360405162000e4092919062001e14565b90815260200160405180910390205490505b92915050565b62000e8b6040518060a0016040528060608152602001606081526020016060815260200160608152602001606081525090565b73ffffffffffffffffffffffffffffffffffffffff821660009081526009602052604090819020815160a0810190925280548290829062000ecc9062001aed565b80601f016020809104026020016040519081016040528092919081815260200182805462000efa9062001aed565b801562000f4b5780601f1062000f1f5761010080835404028352916020019162000f4b565b820191906000526020600020905b81548152906001019060200180831162000f2d57829003601f168201915b5050505050815260200160018201805462000f669062001aed565b80601f016020809104026020016040519081016040528092919081815260200182805462000f949062001aed565b801562000fe55780601f1062000fb95761010080835404028352916020019162000fe5565b820191906000526020600020905b81548152906001019060200180831162000fc757829003601f168201915b50505050508152602001600282018054620010009062001aed565b80601f01602080910402602001604051908101604052809291908181526020018280546200102e9062001aed565b80156200107f5780601f1062001053576101008083540402835291602001916200107f565b820191906000526020600020905b8154815290600101906020018083116200106157829003601f168201915b505050505081526020016003820180546200109a9062001aed565b80601f0160208091040260200160405190810160405280929190818152602001828054620010c89062001aed565b8015620011195780601f10620010ed5761010080835404028352916020019162001119565b820191906000526020600020905b815481529060010190602001808311620010fb57829003601f168201915b5050505050815260200160048201805462000a829062001aed565b600960205260009081526040902080548190620011519062001aed565b80601f01602080910402602001604051908101604052809291908181526020018280546200117f9062001aed565b8015620011d05780601f10620011a457610100808354040283529160200191620011d0565b820191906000526020600020905b815481529060010190602001808311620011b257829003601f168201915b505050505090806001018054620011e79062001aed565b80601f0160208091040260200160405190810160405280929190818152602001828054620012159062001aed565b8015620012665780601f106200123a5761010080835404028352916020019162001266565b820191906000526020600020905b8154815290600101906020018083116200124857829003601f168201915b5050505050908060020180546200127d9062001aed565b80601f0160208091040260200160405190810160405280929190818152602001828054620012ab9062001aed565b8015620012fc5780601f10620012d057610100808354040283529160200191620012fc565b820191906000526020600020905b815481529060010190602001808311620012de57829003601f168201915b505050505090806003018054620013139062001aed565b80601f0160208091040260200160405190810160405280929190818152602001828054620013419062001aed565b8015620013925780601f10620013665761010080835404028352916020019162001392565b820191906000526020600020905b8154815290600101906020018083116200137457829003601f168201915b505050505090806004018054620013a99062001aed565b80601f0160208091040260200160405190810160405280929190818152602001828054620013d79062001aed565b8015620014285780601f10620013fc5761010080835404028352916020019162001428565b820191906000526020600020905b8154815290600101906020018083116200140a57829003601f168201915b5050505050905085565b600581815481106200144357600080fd5b9060005260206000209060050201600091509050806000018054620011519062001aed565b600380546000916200147c60018362001e24565b815481106200148f576200148f62001e3a565b60009182526020909120015473ffffffffffffffffffffffffffffffffffffffff1692915050565b610e9c8062001e6a83390190565b610f488062002d0683390190565b600060208284031215620014e657600080fd5b813573ffffffffffffffffffffffffffffffffffffffff811681146200150b57600080fd5b9392505050565b60005b838110156200152f57818101518382015260200162001515565b50506000910152565b600081518084526200155281602086016020860162001512565b601f01601f19169290920160200192915050565b6080815260006200157b608083018762001538565b82810360208401526200158f818762001538565b90508281036040840152620015a5818662001538565b90508281036060840152620015bb818562001538565b979650505050505050565b7f4e487b7100000000000000000000000000000000000000000000000000000000600052604160045260246000fd5b600082601f8301126200160757600080fd5b813567ffffffffffffffff80821115620016255762001625620015c6565b604051601f8301601f19908116603f01168101908282118183101715620016505762001650620015c6565b816040528381528660208588010111156200166a57600080fd5b836020870160208301376000602085830101528094505050505092915050565b600080600080600060a08688031215620016a357600080fd5b853567ffffffffffffffff80821115620016bc57600080fd5b620016ca89838a01620015f5565b96506020880135915080821115620016e157600080fd5b620016ef89838a01620015f5565b955060408801359150808211156200170657600080fd5b6200171489838a01620015f5565b945060608801359150808211156200172b57600080fd5b6200173989838a01620015f5565b935060808801359150808211156200175057600080fd5b506200175f88828901620015f5565b9150509295509295909350565b6000602082840312156200177f57600080fd5b5035919050565b602081526000825160806020840152620017a460a084018262001538565b90506020840151601f1980858403016040860152620017c4838362001538565b92506040860151915080858403016060860152620017e3838362001538565b925060608601519150808584030160808601525062001803828262001538565b95945050505050565b6020808252825182820181905260009190848201906040850190845b818110156200185c57835173ffffffffffffffffffffffffffffffffffffffff168352928401929184019160010162001828565b50909695505050505050565b600080600080608085870312156200187f57600080fd5b843567ffffffffffffffff808211156200189857600080fd5b620018a688838901620015f5565b95506020870135915080821115620018bd57600080fd5b620018cb88838901620015f5565b94506040870135915080821115620018e257600080fd5b620018f088838901620015f5565b935060608701359150808211156200190757600080fd5b506200191687828801620015f5565b91505092959194509250565b6000602082840312156200193557600080fd5b813567ffffffffffffffff8111156200194d57600080fd5b6200195b84828501620015f5565b949350505050565b600080602083850312156200197757600080fd5b823567ffffffffffffffff808211156200199057600080fd5b818501915085601f830112620019a557600080fd5b813581811115620019b557600080fd5b866020828501011115620019c857600080fd5b60209290920196919550909350505050565b602081526000825160a06020840152620019f860c084018262001538565b90506020840151601f198085840301604086015262001a18838362001538565b9250604086015191508085840301606086015262001a37838362001538565b9250606086015191508085840301608086015262001a56838362001538565b925060808601519150808584030160a08601525062001803828262001538565b60a08152600062001a8b60a083018862001538565b828103602084015262001a9f818862001538565b9050828103604084015262001ab5818762001538565b9050828103606084015262001acb818662001538565b9050828103608084015262001ae1818562001538565b98975050505050505050565b600181811c9082168062001b0257607f821691505b60208210810362001b3c577f4e487b7100000000000000000000000000000000000000000000000000000000600052602260045260246000fd5b50919050565b60e08152600062001b5760e083018a62001538565b828103602084015262001b6b818a62001538565b9050828103604084015262001b81818962001538565b905073ffffffffffffffffffffffffffffffffffffffff8716606084015285608084015282810360a084015262001bb9818662001538565b905082810360c084015262001bcf818562001538565b9a9950505050505050505050565b601f82111562001c2b57600081815260208120601f850160051c8101602086101562001c065750805b601f850160051c820191505b8181101562001c275782815560010162001c12565b5050505b505050565b815167ffffffffffffffff81111562001c4d5762001c4d620015c6565b62001c658162001c5e845462001aed565b8462001bdd565b602080601f83116001811462001c9d576000841562001c845750858301515b600019600386901b1c1916600185901b17855562001c27565b600085815260208120601f198616915b8281101562001cce5788860151825594840194600190910190840162001cad565b508582101562001ced5787850151600019600388901b60f8161c191681555b5050505050600190811b01905550565b7f4e487b7100000000000000000000000000000000000000000000000000000000600052601160045260246000fd5b6000600019820362001d425762001d4262001cfd565b5060010190565b60408152600062001d5e604083018562001538565b828103602084015262001803818562001538565b60c08152600062001d8760c083018962001538565b828103602084015262001d9b818962001538565b9050828103604084015262001db1818862001538565b905073ffffffffffffffffffffffffffffffffffffffff8616606084015284608084015282810360a084015262001de9818562001538565b9998505050505050505050565b6000825162001e0a81846020870162001512565b9190910192915050565b8183823760009101908152919050565b8181038181111562000e525762000e5262001cfd565b7f4e487b7100000000000000000000000000000000000000000000000000000000600052603260045260246000fdfe60806040523480156200001157600080fd5b5060405162000e9c38038062000e9c83398101604081905262000034916200018e565b600080546001600160a01b0319166001600160a01b03861617905560046200005d88826200031a565b5060056200006c87826200031a565b5060066200007b86826200031a565b50600183905560026200008f83826200031a565b5060036200009e82826200031a565b5050505050505050620003e6565b634e487b7160e01b600052604160045260246000fd5b600082601f830112620000d457600080fd5b81516001600160401b0380821115620000f157620000f1620000ac565b604051601f8301601f19908116603f011681019082821181831017156200011c576200011c620000ac565b816040528381526020925086838588010111156200013957600080fd5b600091505b838210156200015d57858201830151818301840152908201906200013e565b600093810190920192909252949350505050565b80516001600160a01b03811681146200018957600080fd5b919050565b600080600080600080600060e0888a031215620001aa57600080fd5b87516001600160401b0380821115620001c257600080fd5b620001d08b838c01620000c2565b985060208a0151915080821115620001e757600080fd5b620001f58b838c01620000c2565b975060408a01519150808211156200020c57600080fd5b6200021a8b838c01620000c2565b96506200022a60608b0162000171565b955060808a0151945060a08a01519150808211156200024857600080fd5b620002568b838c01620000c2565b935060c08a01519150808211156200026d57600080fd5b506200027c8a828b01620000c2565b91505092959891949750929550565b600181811c90821680620002a057607f821691505b602082108103620002c157634e487b7160e01b600052602260045260246000fd5b50919050565b601f8211156200031557600081815260208120601f850160051c81016020861015620002f05750805b601f850160051c820191505b818110156200031157828155600101620002fc565b5050505b505050565b81516001600160401b03811115620003365762000336620000ac565b6200034e816200034784546200028b565b84620002c7565b602080601f8311600181146200038657600084156200036d5750858301515b600019600386901b1c1916600185901b17855562000311565b600085815260208120601f198616915b82811015620003b75788860151825594840194600190910190840162000396565b5085821015620003d65787850151600019600388901b60f8161c191681555b5050505050600190811b01905550565b610aa680620003f66000396000f3fe608060405234801561001057600080fd5b50600436106100d45760003560e01c80637e0766d411610081578063c6d572ae1161005b578063c6d572ae1461019f578063ce59654a146101a7578063d02982cf146101af57600080fd5b80637e0766d41461017c5780637f50861a1461018e5780639360ceff1461019757600080fd5b806345e2984a116100b257806345e2984a1461011e5780635e1648431461013557806376cc58991461013f57600080fd5b8063152c84db146100d9578063327fcee5146101015780633283f19214610116575b600080fd5b6100ec6100e73660046107da565b6101c7565b60405190151581526020015b60405180910390f35b610109610285565b6040516100f89190610903565b610109610317565b610126610326565b6040516100f89392919061091d565b61013d610511565b005b61013d33600090815260076020526040902080547fffffffffffffffffffffffffffffffffffffffffffffffffffffffffffffff00166001179055565b6001545b6040519081526020016100f8565b61018060015481565b610109610591565b61010961061f565b61012661062c565b3360009081526007602052604090205460ff166100ec565b600080546040517fea50d0e4000000000000000000000000000000000000000000000000000000008152829173ffffffffffffffffffffffffffffffffffffffff169063ea50d0e490610224908990899089908990600401610960565b602060405180830381865afa158015610241573d6000803e3d6000fd5b505050506040513d601f19601f8201168201806040525081019061026591906109fb565b9050801561027757600191505061027d565b60009150505b949350505050565b60606002805461029490610a1d565b80601f01602080910402602001604051908101604052809291908181526020018280546102c090610a1d565b801561030d5780601f106102e25761010080835404028352916020019161030d565b820191906000526020600020905b8154815290600101906020018083116102f057829003601f168201915b5050505050905090565b60606003805461029490610a1d565b606080606060006004600001805461033d90610a1d565b80601f016020809104026020016040519081016040528092919081815260200182805461036990610a1d565b80156103b65780601f1061038b576101008083540402835291602001916103b6565b820191906000526020600020905b81548152906001019060200180831161039957829003601f168201915b5050505050905060006103c68290565b90506000600460010180546103da90610a1d565b80601f016020809104026020016040519081016040528092919081815260200182805461040690610a1d565b80156104535780601f1061042857610100808354040283529160200191610453565b820191906000526020600020905b81548152906001019060200180831161043657829003601f168201915b5050505050905060006104638290565b905060006004600201805461047790610a1d565b80601f01602080910402602001604051908101604052809291908181526020018280546104a390610a1d565b80156104f05780601f106104c5576101008083540402835291602001916104f0565b820191906000526020600020905b8154815290600101906020018083116104d357829003601f168201915b5050505050905060006105008290565b949992985093965090945050505050565b3360009081526007602052604090205460ff1661055a576040517f15cc961f00000000000000000000000000000000000000000000000000000000815260040160405180910390fd5b33600090815260076020526040902080547fffffffffffffffffffffffffffffffffffffffffffffffffffffffffffffff00169055565b6003805461059e90610a1d565b80601f01602080910402602001604051908101604052809291908181526020018280546105ca90610a1d565b80156106175780601f106105ec57610100808354040283529160200191610617565b820191906000526020600020905b8154815290600101906020018083116105fa57829003601f168201915b505050505081565b6002805461059e90610a1d565b60048054819061063b90610a1d565b80601f016020809104026020016040519081016040528092919081815260200182805461066790610a1d565b80156106b45780601f10610689576101008083540402835291602001916106b4565b820191906000526020600020905b81548152906001019060200180831161069757829003601f168201915b5050505050908060010180546106c990610a1d565b80601f01602080910402602001604051908101604052809291908181526020018280546106f590610a1d565b80156107425780601f1061071757610100808354040283529160200191610742565b820191906000526020600020905b81548152906001019060200180831161072557829003601f168201915b50505050509080600201805461075790610a1d565b80601f016020809104026020016040519081016040528092919081815260200182805461078390610a1d565b80156107d05780601f106107a5576101008083540402835291602001916107d0565b820191906000526020600020905b8154815290600101906020018083116107b357829003601f168201915b5050505050905083565b600080600080604085870312156107f057600080fd5b843567ffffffffffffffff8082111561080857600080fd5b818701915087601f83011261081c57600080fd5b81358181111561082b57600080fd5b88602082850101111561083d57600080fd5b60209283019650945090860135908082111561085857600080fd5b818701915087601f83011261086c57600080fd5b81358181111561087b57600080fd5b8860208260051b850101111561089057600080fd5b95989497505060200194505050565b6000815180845260005b818110156108c5576020818501810151868301820152016108a9565b5060006020828601015260207fffffffffffffffffffffffffffffffffffffffffffffffffffffffffffffffe0601f83011685010191505092915050565b602081526000610916602083018461089f565b9392505050565b606081526000610930606083018661089f565b8281036020840152610942818661089f565b90508281036040840152610956818561089f565b9695505050505050565b604081528360408201528385606083013760006060858301015260007fffffffffffffffffffffffffffffffffffffffffffffffffffffffffffffffe0601f860116820160608382030160208401528360608201527f07ffffffffffffffffffffffffffffffffffffffffffffffffffffffffffffff8411156109e257600080fd5b8360051b80866080840137016080019695505050505050565b600060208284031215610a0d57600080fd5b8151801515811461091657600080fd5b600181811c90821680610a3157607f821691505b602082108103610a6a577f4e487b7100000000000000000000000000000000000000000000000000000000600052602260045260246000fd5b5091905056fea264697066735822122070351d615f0ed8e3e400feea0786c8ab843fa69bf630a6ecb3acf099166b3ea664736f6c6343000812003360806040523480156200001157600080fd5b5060405162000f4838038062000f4883398101604081905262000034916200017c565b600080546001600160a01b0319166001600160a01b03851617905560056200005d8782620002df565b5060066200006c8682620002df565b5060076200007b8582620002df565b5060046200008a8282620002df565b505060015550620003ab92505050565b634e487b7160e01b600052604160045260246000fd5b600082601f830112620000c257600080fd5b81516001600160401b0380821115620000df57620000df6200009a565b604051601f8301601f19908116603f011681019082821181831017156200010a576200010a6200009a565b816040528381526020925086838588010111156200012757600080fd5b600091505b838210156200014b57858201830151818301840152908201906200012c565b600093810190920192909252949350505050565b80516001600160a01b03811681146200017757600080fd5b919050565b60008060008060008060c087890312156200019657600080fd5b86516001600160401b0380821115620001ae57600080fd5b620001bc8a838b01620000b0565b97506020890151915080821115620001d357600080fd5b620001e18a838b01620000b0565b96506040890151915080821115620001f857600080fd5b620002068a838b01620000b0565b95506200021660608a016200015f565b94506080890151935060a08901519150808211156200023457600080fd5b506200024389828a01620000b0565b9150509295509295509295565b600181811c908216806200026557607f821691505b6020821081036200028657634e487b7160e01b600052602260045260246000fd5b50919050565b601f821115620002da57600081815260208120601f850160051c81016020861015620002b55750805b601f850160051c820191505b81811015620002d657828155600101620002c1565b5050505b505050565b81516001600160401b03811115620002fb57620002fb6200009a565b62000313816200030c845462000250565b846200028c565b602080601f8311600181146200034b5760008415620003325750858301515b600019600386901b1c1916600185901b178555620002d6565b600085815260208120601f198616915b828110156200037c578886015182559484019460019091019084016200035b565b50858210156200039b5787850151600019600388901b60f8161c191681555b5050505050600190811b01905550565b610b8d80620003bb6000396000f3fe608060405234801561001057600080fd5b50600436106100c95760003560e01c806363b6dcda11610081578063a311a7c01161005b578063a311a7c0146101a0578063bfe00a42146101a8578063d02982cf146101b057600080fd5b806363b6dcda146101795780636f13ab00146101815780639930a73c1461019857600080fd5b80633674067f116100b25780633674067f1461010b57806344bdc9271461012357806345e2984a1461016257600080fd5b806317f32053146100ce57806318769765146100f6575b600080fd5b6100e16100dc366004610869565b6101c8565b60405190151581526020015b60405180910390f35b6100fe610286565b6040516100ed9190610992565b610113610314565b6040516100ed94939291906109ac565b61016033600090815260086020526040902080547fffffffffffffffffffffffffffffffffffffffffffffffffffffffffffffff00166001179055565b005b61016a610550565b6040516100ed93929190610a04565b6100fe61073b565b61018a60015481565b6040519081526020016100ed565b6100fe6107cd565b6100fe6107da565b6101606107e9565b3360009081526008602052604090205460ff166100e1565b600080546040517fea50d0e4000000000000000000000000000000000000000000000000000000008152829173ffffffffffffffffffffffffffffffffffffffff169063ea50d0e490610225908990899089908990600401610a47565b602060405180830381865afa158015610242573d6000803e3d6000fd5b505050506040513d601f19601f820116820180604052508101906102669190610ae2565b9050801561027857600191505061027e565b60009150505b949350505050565b6002805461029390610b04565b80601f01602080910402602001604051908101604052809291908181526020018280546102bf90610b04565b801561030c5780601f106102e15761010080835404028352916020019161030c565b820191906000526020600020905b8154815290600101906020018083116102ef57829003601f168201915b505050505081565b60048054819061032390610b04565b80601f016020809104026020016040519081016040528092919081815260200182805461034f90610b04565b801561039c5780601f106103715761010080835404028352916020019161039c565b820191906000526020600020905b81548152906001019060200180831161037f57829003601f168201915b5050505050908060010180546103b190610b04565b80601f01602080910402602001604051908101604052809291908181526020018280546103dd90610b04565b801561042a5780601f106103ff5761010080835404028352916020019161042a565b820191906000526020600020905b81548152906001019060200180831161040d57829003601f168201915b50505050509080600201805461043f90610b04565b80601f016020809104026020016040519081016040528092919081815260200182805461046b90610b04565b80156104b85780601f1061048d576101008083540402835291602001916104b8565b820191906000526020600020905b81548152906001019060200180831161049b57829003601f168201915b5050505050908060030180546104cd90610b04565b80601f01602080910402602001604051908101604052809291908181526020018280546104f990610b04565b80156105465780601f1061051b57610100808354040283529160200191610546565b820191906000526020600020905b81548152906001019060200180831161052957829003601f168201915b5050505050905084565b606080606060006004600101805461056790610b04565b80601f016020809104026020016040519081016040528092919081815260200182805461059390610b04565b80156105e05780601f106105b5576101008083540402835291602001916105e0565b820191906000526020600020905b8154815290600101906020018083116105c357829003601f168201915b5050505050905060006105f08290565b905060006004600201805461060490610b04565b80601f016020809104026020016040519081016040528092919081815260200182805461063090610b04565b801561067d5780601f106106525761010080835404028352916020019161067d565b820191906000526020600020905b81548152906001019060200180831161066057829003601f168201915b50505050509050600061068d8290565b90506000600460030180546106a190610b04565b80601f01602080910402602001604051908101604052809291908181526020018280546106cd90610b04565b801561071a5780601f106106ef5761010080835404028352916020019161071a565b820191906000526020600020905b8154815290600101906020018083116106fd57829003601f168201915b50505050509050600061072a8290565b949992985093965090945050505050565b60606002805461074a90610b04565b80601f016020809104026020016040519081016040528092919081815260200182805461077690610b04565b80156107c35780601f10610798576101008083540402835291602001916107c3565b820191906000526020600020905b8154815290600101906020018083116107a657829003601f168201915b5050505050905090565b6003805461029390610b04565b60606003805461074a90610b04565b3360009081526008602052604090205460ff16610832576040517f15cc961f00000000000000000000000000000000000000000000000000000000815260040160405180910390fd5b33600090815260086020526040902080547fffffffffffffffffffffffffffffffffffffffffffffffffffffffffffffff00169055565b6000806000806040858703121561087f57600080fd5b843567ffffffffffffffff8082111561089757600080fd5b818701915087601f8301126108ab57600080fd5b8135818111156108ba57600080fd5b8860208285010111156108cc57600080fd5b6020928301965094509086013590808211156108e757600080fd5b818701915087601f8301126108fb57600080fd5b81358181111561090a57600080fd5b8860208260051b850101111561091f57600080fd5b95989497505060200194505050565b6000815180845260005b8181101561095457602081850181015186830182015201610938565b5060006020828601015260207fffffffffffffffffffffffffffffffffffffffffffffffffffffffffffffffe0601f83011685010191505092915050565b6020815260006109a5602083018461092e565b9392505050565b6080815260006109bf608083018761092e565b82810360208401526109d1818761092e565b905082810360408401526109e5818661092e565b905082810360608401526109f9818561092e565b979650505050505050565b606081526000610a17606083018661092e565b8281036020840152610a29818661092e565b90508281036040840152610a3d818561092e565b9695505050505050565b604081528360408201528385606083013760006060858301015260007fffffffffffffffffffffffffffffffffffffffffffffffffffffffffffffffe0601f860116820160608382030160208401528360608201527f07ffffffffffffffffffffffffffffffffffffffffffffffffffffffffffffff841115610ac957600080fd5b8360051b80866080840137016080019695505050505050565b600060208284031215610af457600080fd5b815180151581146109a557600080fd5b600181811c90821680610b1857607f821691505b602082108103610b51577f4e487b7100000000000000000000000000000000000000000000000000000000600052602260045260246000fd5b5091905056fea2646970667358221220460d172941b8843793f5c5b8144d2322a9cf2a94222addb47972a4e4b6b759ca64736f6c63430008120033a2646970667358221220bda0611f959889e77f2723d57321265ce83bff8323cf8f2ee606ba58102bb77564736f6c63430008120033",
  "linkReferences": {},
  "deployedLinkReferences": {}
}