{
  "_format": "hh-sol-artifact-1",
  "contractName": "ZKCommunity",
  "sourceName": "contracts/Community/Community.sol",
  "abi": [
    {
      "inputs": [
        {
          "internalType": "string",
          "name": "_domainPub",
          "type": "string"
        },
        {
          "internalType": "string",
          "name": "_regionPub",
          "type": "string"
        },
        {
          "internalType": "string",
          "name": "_genderPub",
          "type": "string"
        },
        {
          "internalType": "address",
          "name": "_verifier",
          "type": "address"
        },
        {
          "internalType": "uint256",
          "name": "_communityId",
          "type": "uint256"
        },
        {
          "internalType": "string",
          "name": "_communityName",
          "type": "string"
        },
        {
          "internalType": "string",
          "name": "_communityDescription",
          "type": "string"
        }
      ],
      "stateMutability": "nonpayable",
      "type": "constructor"
    },
    {
      "inputs": [],
      "name": "NOT_A_MEMBER",
      "type": "error"
    },
    {
      "inputs": [],
      "name": "communityDescription",
      "outputs": [
        {
          "internalType": "string",
          "name": "",
          "type": "string"
        }
      ],
      "stateMutability": "view",
      "type": "function"
    },
    {
      "inputs": [],
      "name": "communityId",
      "outputs": [
        {
          "internalType": "uint256",
          "name": "",
          "type": "uint256"
        }
      ],
      "stateMutability": "view",
      "type": "function"
    },
    {
      "inputs": [],
      "name": "communityName",
      "outputs": [
        {
          "internalType": "string",
          "name": "",
          "type": "string"
        }
      ],
      "stateMutability": "view",
      "type": "function"
    },
    {
      "inputs": [],
      "name": "communityRules",
      "outputs": [
        {
          "internalType": "string",
          "name": "domainPub",
          "type": "string"
        },
        {
          "internalType": "string",
          "name": "regionPub",
          "type": "string"
        },
        {
          "internalType": "string",
          "name": "genderPub",
          "type": "string"
        }
      ],
      "stateMutability": "view",
      "type": "function"
    },
    {
      "inputs": [],
      "name": "getCommunityDescription",
      "outputs": [
        {
          "internalType": "string",
          "name": "",
          "type": "string"
        }
      ],
      "stateMutability": "view",
      "type": "function"
    },
    {
      "inputs": [],
      "name": "getCommunityId",
      "outputs": [
        {
          "internalType": "uint256",
          "name": "",
          "type": "uint256"
        }
      ],
      "stateMutability": "view",
      "type": "function"
    },
    {
      "inputs": [],
      "name": "getCommunityName",
      "outputs": [
        {
          "internalType": "string",
          "name": "",
          "type": "string"
        }
      ],
      "stateMutability": "view",
      "type": "function"
    },
    {
      "inputs": [],
      "name": "getRules",
      "outputs": [
        {
          "internalType": "bytes",
          "name": "",
          "type": "bytes"
        },
        {
          "internalType": "bytes",
          "name": "",
          "type": "bytes"
        },
        {
          "internalType": "bytes",
          "name": "",
          "type": "bytes"
        }
      ],
      "stateMutability": "view",
      "type": "function"
    },
    {
      "inputs": [],
      "name": "isMember",
      "outputs": [
        {
          "internalType": "bool",
          "name": "",
          "type": "bool"
        }
      ],
      "stateMutability": "view",
      "type": "function"
    },
    {
      "inputs": [
        {
          "internalType": "bytes",
          "name": "_proof",
          "type": "bytes"
        },
        {
          "internalType": "bytes32[]",
          "name": "_publicInputs",
          "type": "bytes32[]"
        }
      ],
      "name": "joinCommunity",
      "outputs": [
        {
          "internalType": "bool",
          "name": "",
          "type": "bool"
        }
      ],
      "stateMutability": "view",
      "type": "function"
    },
    {
      "inputs": [],
      "name": "leaveCommunity",
      "outputs": [],
      "stateMutability": "nonpayable",
      "type": "function"
    },
    {
      "inputs": [],
      "name": "setIsInCommunity",
      "outputs": [],
      "stateMutability": "nonpayable",
      "type": "function"
    }
  ],
  "bytecode": "0x60806040523480156200001157600080fd5b5060405162000e9c38038062000e9c83398101604081905262000034916200018e565b600080546001600160a01b0319166001600160a01b03861617905560046200005d88826200031a565b5060056200006c87826200031a565b5060066200007b86826200031a565b50600183905560026200008f83826200031a565b5060036200009e82826200031a565b5050505050505050620003e6565b634e487b7160e01b600052604160045260246000fd5b600082601f830112620000d457600080fd5b81516001600160401b0380821115620000f157620000f1620000ac565b604051601f8301601f19908116603f011681019082821181831017156200011c576200011c620000ac565b816040528381526020925086838588010111156200013957600080fd5b600091505b838210156200015d57858201830151818301840152908201906200013e565b600093810190920192909252949350505050565b80516001600160a01b03811681146200018957600080fd5b919050565b600080600080600080600060e0888a031215620001aa57600080fd5b87516001600160401b0380821115620001c257600080fd5b620001d08b838c01620000c2565b985060208a0151915080821115620001e757600080fd5b620001f58b838c01620000c2565b975060408a01519150808211156200020c57600080fd5b6200021a8b838c01620000c2565b96506200022a60608b0162000171565b955060808a0151945060a08a01519150808211156200024857600080fd5b620002568b838c01620000c2565b935060c08a01519150808211156200026d57600080fd5b506200027c8a828b01620000c2565b91505092959891949750929550565b600181811c90821680620002a057607f821691505b602082108103620002c157634e487b7160e01b600052602260045260246000fd5b50919050565b601f8211156200031557600081815260208120601f850160051c81016020861015620002f05750805b601f850160051c820191505b818110156200031157828155600101620002fc565b5050505b505050565b81516001600160401b03811115620003365762000336620000ac565b6200034e816200034784546200028b565b84620002c7565b602080601f8311600181146200038657600084156200036d5750858301515b600019600386901b1c1916600185901b17855562000311565b600085815260208120601f198616915b82811015620003b75788860151825594840194600190910190840162000396565b5085821015620003d65787850151600019600388901b60f8161c191681555b5050505050600190811b01905550565b610aa680620003f66000396000f3fe608060405234801561001057600080fd5b50600436106100d45760003560e01c80637e0766d411610081578063c6d572ae1161005b578063c6d572ae1461019f578063ce59654a146101a7578063d02982cf146101af57600080fd5b80637e0766d41461017c5780637f50861a1461018e5780639360ceff1461019757600080fd5b806345e2984a116100b257806345e2984a1461011e5780635e1648431461013557806376cc58991461013f57600080fd5b8063152c84db146100d9578063327fcee5146101015780633283f19214610116575b600080fd5b6100ec6100e73660046107da565b6101c7565b60405190151581526020015b60405180910390f35b610109610285565b6040516100f89190610903565b610109610317565b610126610326565b6040516100f89392919061091d565b61013d610511565b005b61013d33600090815260076020526040902080547fffffffffffffffffffffffffffffffffffffffffffffffffffffffffffffff00166001179055565b6001545b6040519081526020016100f8565b61018060015481565b610109610591565b61010961061f565b61012661062c565b3360009081526007602052604090205460ff166100ec565b600080546040517fea50d0e4000000000000000000000000000000000000000000000000000000008152829173ffffffffffffffffffffffffffffffffffffffff169063ea50d0e490610224908990899089908990600401610960565b602060405180830381865afa158015610241573d6000803e3d6000fd5b505050506040513d601f19601f8201168201806040525081019061026591906109fb565b9050801561027757600191505061027d565b60009150505b949350505050565b60606002805461029490610a1d565b80601f01602080910402602001604051908101604052809291908181526020018280546102c090610a1d565b801561030d5780601f106102e25761010080835404028352916020019161030d565b820191906000526020600020905b8154815290600101906020018083116102f057829003601f168201915b5050505050905090565b60606003805461029490610a1d565b606080606060006004600001805461033d90610a1d565b80601f016020809104026020016040519081016040528092919081815260200182805461036990610a1d565b80156103b65780601f1061038b576101008083540402835291602001916103b6565b820191906000526020600020905b81548152906001019060200180831161039957829003601f168201915b5050505050905060006103c68290565b90506000600460010180546103da90610a1d565b80601f016020809104026020016040519081016040528092919081815260200182805461040690610a1d565b80156104535780601f1061042857610100808354040283529160200191610453565b820191906000526020600020905b81548152906001019060200180831161043657829003601f168201915b5050505050905060006104638290565b905060006004600201805461047790610a1d565b80601f01602080910402602001604051908101604052809291908181526020018280546104a390610a1d565b80156104f05780601f106104c5576101008083540402835291602001916104f0565b820191906000526020600020905b8154815290600101906020018083116104d357829003601f168201915b5050505050905060006105008290565b949992985093965090945050505050565b3360009081526007602052604090205460ff1661055a576040517f15cc961f00000000000000000000000000000000000000000000000000000000815260040160405180910390fd5b33600090815260076020526040902080547fffffffffffffffffffffffffffffffffffffffffffffffffffffffffffffff00169055565b6003805461059e90610a1d565b80601f01602080910402602001604051908101604052809291908181526020018280546105ca90610a1d565b80156106175780601f106105ec57610100808354040283529160200191610617565b820191906000526020600020905b8154815290600101906020018083116105fa57829003601f168201915b505050505081565b6002805461059e90610a1d565b60048054819061063b90610a1d565b80601f016020809104026020016040519081016040528092919081815260200182805461066790610a1d565b80156106b45780601f10610689576101008083540402835291602001916106b4565b820191906000526020600020905b81548152906001019060200180831161069757829003601f168201915b5050505050908060010180546106c990610a1d565b80601f01602080910402602001604051908101604052809291908181526020018280546106f590610a1d565b80156107425780601f1061071757610100808354040283529160200191610742565b820191906000526020600020905b81548152906001019060200180831161072557829003601f168201915b50505050509080600201805461075790610a1d565b80601f016020809104026020016040519081016040528092919081815260200182805461078390610a1d565b80156107d05780601f106107a5576101008083540402835291602001916107d0565b820191906000526020600020905b8154815290600101906020018083116107b357829003601f168201915b5050505050905083565b600080600080604085870312156107f057600080fd5b843567ffffffffffffffff8082111561080857600080fd5b818701915087601f83011261081c57600080fd5b81358181111561082b57600080fd5b88602082850101111561083d57600080fd5b60209283019650945090860135908082111561085857600080fd5b818701915087601f83011261086c57600080fd5b81358181111561087b57600080fd5b8860208260051b850101111561089057600080fd5b95989497505060200194505050565b6000815180845260005b818110156108c5576020818501810151868301820152016108a9565b5060006020828601015260207fffffffffffffffffffffffffffffffffffffffffffffffffffffffffffffffe0601f83011685010191505092915050565b602081526000610916602083018461089f565b9392505050565b606081526000610930606083018661089f565b8281036020840152610942818661089f565b90508281036040840152610956818561089f565b9695505050505050565b604081528360408201528385606083013760006060858301015260007fffffffffffffffffffffffffffffffffffffffffffffffffffffffffffffffe0601f860116820160608382030160208401528360608201527f07ffffffffffffffffffffffffffffffffffffffffffffffffffffffffffffff8411156109e257600080fd5b8360051b80866080840137016080019695505050505050565b600060208284031215610a0d57600080fd5b8151801515811461091657600080fd5b600181811c90821680610a3157607f821691505b602082108103610a6a577f4e487b7100000000000000000000000000000000000000000000000000000000600052602260045260246000fd5b5091905056fea264697066735822122070351d615f0ed8e3e400feea0786c8ab843fa69bf630a6ecb3acf099166b3ea664736f6c63430008120033",
  "linkReferences": {},
  "deployedLinkReferences": {}
}