{
  "_format": "hh-sol-artifact-1",
  "contractName": "ZKPoll",
  "sourceName": "contracts/Polls/Polls.sol",
  "abi": [
    {
      "inputs": [
        {
          "internalType": "string",
          "name": "_domainPub",
          "type": "string"
        },
        {
          "internalType": "string",
          "name": "_regionPub",
          "type": "string"
        },
        {
          "internalType": "string",
          "name": "_genderPub",
          "type": "string"
        },
        {
          "internalType": "address",
          "name": "_verifier",
          "type": "address"
        },
        {
          "internalType": "uint256",
          "name": "_pollId",
          "type": "uint256"
        },
        {
          "internalType": "string",
          "name": "_mongoId",
          "type": "string"
        }
      ],
      "stateMutability": "nonpayable",
      "type": "constructor"
    },
    {
      "inputs": [],
      "name": "NOT_A_MEMBER",
      "type": "error"
    },
    {
      "inputs": [],
      "name": "getPollDescription",
      "outputs": [
        {
          "internalType": "string",
          "name": "",
          "type": "string"
        }
      ],
      "stateMutability": "view",
      "type": "function"
    },
    {
      "inputs": [],
      "name": "getPollName",
      "outputs": [
        {
          "internalType": "string",
          "name": "",
          "type": "string"
        }
      ],
      "stateMutability": "view",
      "type": "function"
    },
    {
      "inputs": [],
      "name": "getRules",
      "outputs": [
        {
          "internalType": "bytes",
          "name": "",
          "type": "bytes"
        },
        {
          "internalType": "bytes",
          "name": "",
          "type": "bytes"
        },
        {
          "internalType": "bytes",
          "name": "",
          "type": "bytes"
        }
      ],
      "stateMutability": "view",
      "type": "function"
    },
    {
      "inputs": [],
      "name": "isMember",
      "outputs": [
        {
          "internalType": "bool",
          "name": "",
          "type": "bool"
        }
      ],
      "stateMutability": "view",
      "type": "function"
    },
    {
      "inputs": [
        {
          "internalType": "bytes",
          "name": "_proof",
          "type": "bytes"
        },
        {
          "internalType": "bytes32[]",
          "name": "_publicInputs",
          "type": "bytes32[]"
        }
      ],
      "name": "joinPoll",
      "outputs": [
        {
          "internalType": "bool",
          "name": "",
          "type": "bool"
        }
      ],
      "stateMutability": "view",
      "type": "function"
    },
    {
      "inputs": [],
      "name": "leavePoll",
      "outputs": [],
      "stateMutability": "nonpayable",
      "type": "function"
    },
    {
      "inputs": [],
      "name": "pollDescription",
      "outputs": [
        {
          "internalType": "string",
          "name": "",
          "type": "string"
        }
      ],
      "stateMutability": "view",
      "type": "function"
    },
    {
      "inputs": [],
      "name": "pollId",
      "outputs": [
        {
          "internalType": "uint256",
          "name": "",
          "type": "uint256"
        }
      ],
      "stateMutability": "view",
      "type": "function"
    },
    {
      "inputs": [],
      "name": "pollName",
      "outputs": [
        {
          "internalType": "string",
          "name": "",
          "type": "string"
        }
      ],
      "stateMutability": "view",
      "type": "function"
    },
    {
      "inputs": [],
      "name": "pollRules",
      "outputs": [
        {
          "internalType": "string",
          "name": "mongoId",
          "type": "string"
        },
        {
          "internalType": "string",
          "name": "domainPub",
          "type": "string"
        },
        {
          "internalType": "string",
          "name": "regionPub",
          "type": "string"
        },
        {
          "internalType": "string",
          "name": "genderPub",
          "type": "string"
        }
      ],
      "stateMutability": "view",
      "type": "function"
    },
    {
      "inputs": [],
      "name": "setIsInPoll",
      "outputs": [],
      "stateMutability": "nonpayable",
      "type": "function"
    }
  ],
  "bytecode": "0x60806040523480156200001157600080fd5b5060405162000f4838038062000f4883398101604081905262000034916200017c565b600080546001600160a01b0319166001600160a01b03851617905560056200005d8782620002df565b5060066200006c8682620002df565b5060076200007b8582620002df565b5060046200008a8282620002df565b505060015550620003ab92505050565b634e487b7160e01b600052604160045260246000fd5b600082601f830112620000c257600080fd5b81516001600160401b0380821115620000df57620000df6200009a565b604051601f8301601f19908116603f011681019082821181831017156200010a576200010a6200009a565b816040528381526020925086838588010111156200012757600080fd5b600091505b838210156200014b57858201830151818301840152908201906200012c565b600093810190920192909252949350505050565b80516001600160a01b03811681146200017757600080fd5b919050565b60008060008060008060c087890312156200019657600080fd5b86516001600160401b0380821115620001ae57600080fd5b620001bc8a838b01620000b0565b97506020890151915080821115620001d357600080fd5b620001e18a838b01620000b0565b96506040890151915080821115620001f857600080fd5b620002068a838b01620000b0565b95506200021660608a016200015f565b94506080890151935060a08901519150808211156200023457600080fd5b506200024389828a01620000b0565b9150509295509295509295565b600181811c908216806200026557607f821691505b6020821081036200028657634e487b7160e01b600052602260045260246000fd5b50919050565b601f821115620002da57600081815260208120601f850160051c81016020861015620002b55750805b601f850160051c820191505b81811015620002d657828155600101620002c1565b5050505b505050565b81516001600160401b03811115620002fb57620002fb6200009a565b62000313816200030c845462000250565b846200028c565b602080601f8311600181146200034b5760008415620003325750858301515b600019600386901b1c1916600185901b178555620002d6565b600085815260208120601f198616915b828110156200037c578886015182559484019460019091019084016200035b565b50858210156200039b5787850151600019600388901b60f8161c191681555b5050505050600190811b01905550565b610b8d80620003bb6000396000f3fe608060405234801561001057600080fd5b50600436106100c95760003560e01c806363b6dcda11610081578063a311a7c01161005b578063a311a7c0146101a0578063bfe00a42146101a8578063d02982cf146101b057600080fd5b806363b6dcda146101795780636f13ab00146101815780639930a73c1461019857600080fd5b80633674067f116100b25780633674067f1461010b57806344bdc9271461012357806345e2984a1461016257600080fd5b806317f32053146100ce57806318769765146100f6575b600080fd5b6100e16100dc366004610869565b6101c8565b60405190151581526020015b60405180910390f35b6100fe610286565b6040516100ed9190610992565b610113610314565b6040516100ed94939291906109ac565b61016033600090815260086020526040902080547fffffffffffffffffffffffffffffffffffffffffffffffffffffffffffffff00166001179055565b005b61016a610550565b6040516100ed93929190610a04565b6100fe61073b565b61018a60015481565b6040519081526020016100ed565b6100fe6107cd565b6100fe6107da565b6101606107e9565b3360009081526008602052604090205460ff166100e1565b600080546040517fea50d0e4000000000000000000000000000000000000000000000000000000008152829173ffffffffffffffffffffffffffffffffffffffff169063ea50d0e490610225908990899089908990600401610a47565b602060405180830381865afa158015610242573d6000803e3d6000fd5b505050506040513d601f19601f820116820180604052508101906102669190610ae2565b9050801561027857600191505061027e565b60009150505b949350505050565b6002805461029390610b04565b80601f01602080910402602001604051908101604052809291908181526020018280546102bf90610b04565b801561030c5780601f106102e15761010080835404028352916020019161030c565b820191906000526020600020905b8154815290600101906020018083116102ef57829003601f168201915b505050505081565b60048054819061032390610b04565b80601f016020809104026020016040519081016040528092919081815260200182805461034f90610b04565b801561039c5780601f106103715761010080835404028352916020019161039c565b820191906000526020600020905b81548152906001019060200180831161037f57829003601f168201915b5050505050908060010180546103b190610b04565b80601f01602080910402602001604051908101604052809291908181526020018280546103dd90610b04565b801561042a5780601f106103ff5761010080835404028352916020019161042a565b820191906000526020600020905b81548152906001019060200180831161040d57829003601f168201915b50505050509080600201805461043f90610b04565b80601f016020809104026020016040519081016040528092919081815260200182805461046b90610b04565b80156104b85780601f1061048d576101008083540402835291602001916104b8565b820191906000526020600020905b81548152906001019060200180831161049b57829003601f168201915b5050505050908060030180546104cd90610b04565b80601f01602080910402602001604051908101604052809291908181526020018280546104f990610b04565b80156105465780601f1061051b57610100808354040283529160200191610546565b820191906000526020600020905b81548152906001019060200180831161052957829003601f168201915b5050505050905084565b606080606060006004600101805461056790610b04565b80601f016020809104026020016040519081016040528092919081815260200182805461059390610b04565b80156105e05780601f106105b5576101008083540402835291602001916105e0565b820191906000526020600020905b8154815290600101906020018083116105c357829003601f168201915b5050505050905060006105f08290565b905060006004600201805461060490610b04565b80601f016020809104026020016040519081016040528092919081815260200182805461063090610b04565b801561067d5780601f106106525761010080835404028352916020019161067d565b820191906000526020600020905b81548152906001019060200180831161066057829003601f168201915b50505050509050600061068d8290565b90506000600460030180546106a190610b04565b80601f01602080910402602001604051908101604052809291908181526020018280546106cd90610b04565b801561071a5780601f106106ef5761010080835404028352916020019161071a565b820191906000526020600020905b8154815290600101906020018083116106fd57829003601f168201915b50505050509050600061072a8290565b949992985093965090945050505050565b60606002805461074a90610b04565b80601f016020809104026020016040519081016040528092919081815260200182805461077690610b04565b80156107c35780601f10610798576101008083540402835291602001916107c3565b820191906000526020600020905b8154815290600101906020018083116107a657829003601f168201915b5050505050905090565b6003805461029390610b04565b60606003805461074a90610b04565b3360009081526008602052604090205460ff16610832576040517f15cc961f00000000000000000000000000000000000000000000000000000000815260040160405180910390fd5b33600090815260086020526040902080547fffffffffffffffffffffffffffffffffffffffffffffffffffffffffffffff00169055565b6000806000806040858703121561087f57600080fd5b843567ffffffffffffffff8082111561089757600080fd5b818701915087601f8301126108ab57600080fd5b8135818111156108ba57600080fd5b8860208285010111156108cc57600080fd5b6020928301965094509086013590808211156108e757600080fd5b818701915087601f8301126108fb57600080fd5b81358181111561090a57600080fd5b8860208260051b850101111561091f57600080fd5b95989497505060200194505050565b6000815180845260005b8181101561095457602081850181015186830182015201610938565b5060006020828601015260207fffffffffffffffffffffffffffffffffffffffffffffffffffffffffffffffe0601f83011685010191505092915050565b6020815260006109a5602083018461092e565b9392505050565b6080815260006109bf608083018761092e565b82810360208401526109d1818761092e565b905082810360408401526109e5818661092e565b905082810360608401526109f9818561092e565b979650505050505050565b606081526000610a17606083018661092e565b8281036020840152610a29818661092e565b90508281036040840152610a3d818561092e565b9695505050505050565b604081528360408201528385606083013760006060858301015260007fffffffffffffffffffffffffffffffffffffffffffffffffffffffffffffffe0601f860116820160608382030160208401528360608201527f07ffffffffffffffffffffffffffffffffffffffffffffffffffffffffffffff841115610ac957600080fd5b8360051b80866080840137016080019695505050505050565b600060208284031215610af457600080fd5b815180151581146109a557600080fd5b600181811c90821680610b1857607f821691505b602082108103610b51577f4e487b7100000000000000000000000000000000000000000000000000000000600052602260045260246000fd5b5091905056fea2646970667358221220460d172941b8843793f5c5b8144d2322a9cf2a94222addb47972a4e4b6b759ca64736f6c63430008120033",
  "linkReferences": {},
  "deployedLinkReferences": {}
}